{
  "_format": "hh-sol-artifact-1",
  "contractName": "Exchange",
  "sourceName": "contracts/Exchange.sol",
  "abi": [
    {
      "inputs": [
        {
          "internalType": "contract IERC20",
          "name": "_stable",
          "type": "address"
        },
        {
          "internalType": "contract IERC1155",
          "name": "_ERC1155NFT",
          "type": "address"
        },
        {
          "internalType": "uint256",
          "name": "_nftID",
          "type": "uint256"
        }
      ],
      "stateMutability": "nonpayable",
      "type": "constructor"
    },
    {
      "anonymous": false,
      "inputs": [
        {
          "indexed": true,
          "internalType": "address",
          "name": "owner",
          "type": "address"
        },
        {
          "indexed": true,
          "internalType": "address",
          "name": "spender",
          "type": "address"
        },
        {
          "indexed": false,
          "internalType": "uint256",
          "name": "value",
          "type": "uint256"
        }
      ],
      "name": "Approval",
      "type": "event"
    },
    {
      "anonymous": false,
      "inputs": [
        {
          "indexed": true,
          "internalType": "address",
          "name": "from",
          "type": "address"
        },
        {
          "indexed": true,
          "internalType": "address",
          "name": "to",
          "type": "address"
        },
        {
          "indexed": false,
          "internalType": "uint256",
          "name": "value",
          "type": "uint256"
        }
      ],
      "name": "Transfer",
      "type": "event"
    },
    {
      "inputs": [
        {
          "internalType": "uint256",
          "name": "nftAmt",
          "type": "uint256"
        },
        {
          "internalType": "uint256",
          "name": "maxStableAmt",
          "type": "uint256"
        }
      ],
      "name": "addLiquidity",
      "outputs": [
        {
          "internalType": "uint256",
          "name": "lp_minted",
          "type": "uint256"
        }
      ],
      "stateMutability": "nonpayable",
      "type": "function"
    },
    {
      "inputs": [
        {
          "internalType": "address",
          "name": "owner",
          "type": "address"
        },
        {
          "internalType": "address",
          "name": "spender",
          "type": "address"
        }
      ],
      "name": "allowance",
      "outputs": [
        {
          "internalType": "uint256",
          "name": "",
          "type": "uint256"
        }
      ],
      "stateMutability": "view",
      "type": "function"
    },
    {
      "inputs": [
        {
          "internalType": "address",
          "name": "spender",
          "type": "address"
        },
        {
          "internalType": "uint256",
          "name": "amount",
          "type": "uint256"
        }
      ],
      "name": "approve",
      "outputs": [
        {
          "internalType": "bool",
          "name": "",
          "type": "bool"
        }
      ],
      "stateMutability": "nonpayable",
      "type": "function"
    },
    {
      "inputs": [
        {
          "internalType": "address",
          "name": "account",
          "type": "address"
        }
      ],
      "name": "balanceOf",
      "outputs": [
        {
          "internalType": "uint256",
          "name": "",
          "type": "uint256"
        }
      ],
      "stateMutability": "view",
      "type": "function"
    },
    {
      "inputs": [],
      "name": "decimals",
      "outputs": [
        {
          "internalType": "uint8",
          "name": "",
          "type": "uint8"
        }
      ],
      "stateMutability": "view",
      "type": "function"
    },
    {
      "inputs": [
        {
          "internalType": "address",
          "name": "spender",
          "type": "address"
        },
        {
          "internalType": "uint256",
          "name": "subtractedValue",
          "type": "uint256"
        }
      ],
      "name": "decreaseAllowance",
      "outputs": [
        {
          "internalType": "bool",
          "name": "",
          "type": "bool"
        }
      ],
      "stateMutability": "nonpayable",
      "type": "function"
    },
    {
      "inputs": [
        {
          "internalType": "uint256",
          "name": "nftAmt",
          "type": "uint256"
        }
      ],
      "name": "getPriceNftToStable",
      "outputs": [
        {
          "internalType": "uint256",
          "name": "stables_bought",
          "type": "uint256"
        }
      ],
      "stateMutability": "view",
      "type": "function"
    },
    {
      "inputs": [
        {
          "internalType": "uint256",
          "name": "stableAmt",
          "type": "uint256"
        }
      ],
      "name": "getPriceStableToNft",
      "outputs": [
        {
          "internalType": "uint256",
          "name": "nfts_bought",
          "type": "uint256"
        }
      ],
      "stateMutability": "view",
      "type": "function"
    },
    {
      "inputs": [],
      "name": "getReserves",
      "outputs": [
        {
          "internalType": "uint256",
          "name": "nft_reserve",
          "type": "uint256"
        },
        {
          "internalType": "uint256",
          "name": "stable_reserve",
          "type": "uint256"
        }
      ],
      "stateMutability": "view",
      "type": "function"
    },
    {
      "inputs": [
        {
          "internalType": "address",
          "name": "spender",
          "type": "address"
        },
        {
          "internalType": "uint256",
          "name": "addedValue",
          "type": "uint256"
        }
      ],
      "name": "increaseAllowance",
      "outputs": [
        {
          "internalType": "bool",
          "name": "",
          "type": "bool"
        }
      ],
      "stateMutability": "nonpayable",
      "type": "function"
    },
    {
      "inputs": [],
      "name": "name",
      "outputs": [
        {
          "internalType": "string",
          "name": "",
          "type": "string"
        }
      ],
      "stateMutability": "view",
      "type": "function"
    },
    {
      "inputs": [],
      "name": "nft",
      "outputs": [
        {
          "internalType": "contract IERC1155",
          "name": "",
          "type": "address"
        }
      ],
      "stateMutability": "view",
      "type": "function"
    },
    {
      "inputs": [],
      "name": "nftID",
      "outputs": [
        {
          "internalType": "uint256",
          "name": "",
          "type": "uint256"
        }
      ],
      "stateMutability": "view",
      "type": "function"
    },
    {
      "inputs": [
        {
          "internalType": "uint256",
          "name": "nftAmt",
          "type": "uint256"
        }
      ],
      "name": "nftToStable",
      "outputs": [
        {
          "internalType": "uint256",
          "name": "stables_bought",
          "type": "uint256"
        }
      ],
      "stateMutability": "nonpayable",
      "type": "function"
    },
    {
      "inputs": [
        {
          "internalType": "address",
          "name": "",
          "type": "address"
        },
        {
          "internalType": "address",
          "name": "",
          "type": "address"
        },
        {
          "internalType": "uint256[]",
          "name": "",
          "type": "uint256[]"
        },
        {
          "internalType": "uint256[]",
          "name": "",
          "type": "uint256[]"
        },
        {
          "internalType": "bytes",
          "name": "",
          "type": "bytes"
        }
      ],
      "name": "onERC1155BatchReceived",
      "outputs": [
        {
          "internalType": "bytes4",
          "name": "",
          "type": "bytes4"
        }
      ],
      "stateMutability": "nonpayable",
      "type": "function"
    },
    {
      "inputs": [
        {
          "internalType": "address",
          "name": "",
          "type": "address"
        },
        {
          "internalType": "address",
          "name": "",
          "type": "address"
        },
        {
          "internalType": "uint256",
          "name": "",
          "type": "uint256"
        },
        {
          "internalType": "uint256",
          "name": "",
          "type": "uint256"
        },
        {
          "internalType": "bytes",
          "name": "",
          "type": "bytes"
        }
      ],
      "name": "onERC1155Received",
      "outputs": [
        {
          "internalType": "bytes4",
          "name": "",
          "type": "bytes4"
        }
      ],
      "stateMutability": "nonpayable",
      "type": "function"
    },
    {
      "inputs": [
        {
          "internalType": "uint256",
          "name": "input_amount",
          "type": "uint256"
        },
        {
          "internalType": "uint256",
          "name": "input_reserve",
          "type": "uint256"
        },
        {
          "internalType": "uint256",
          "name": "output_reserve",
          "type": "uint256"
        }
      ],
      "name": "price",
      "outputs": [
        {
          "internalType": "uint256",
          "name": "",
          "type": "uint256"
        }
      ],
      "stateMutability": "pure",
      "type": "function"
    },
    {
      "inputs": [
        {
          "internalType": "uint256",
          "name": "lpAmt",
          "type": "uint256"
        }
      ],
      "name": "removeLiquidity",
      "outputs": [
        {
          "internalType": "uint256",
          "name": "nft_amount",
          "type": "uint256"
        },
        {
          "internalType": "uint256",
          "name": "stable_amount",
          "type": "uint256"
        }
      ],
      "stateMutability": "nonpayable",
      "type": "function"
    },
    {
      "inputs": [],
      "name": "stable",
      "outputs": [
        {
          "internalType": "contract IERC20",
          "name": "",
          "type": "address"
        }
      ],
      "stateMutability": "view",
      "type": "function"
    },
    {
      "inputs": [
        {
          "internalType": "uint256",
          "name": "stableAmt",
          "type": "uint256"
        }
      ],
      "name": "stableToNft",
      "outputs": [
        {
          "internalType": "uint256",
          "name": "nfts_bought",
          "type": "uint256"
        }
      ],
      "stateMutability": "nonpayable",
      "type": "function"
    },
    {
      "inputs": [
        {
          "internalType": "bytes4",
          "name": "interfaceId",
          "type": "bytes4"
        }
      ],
      "name": "supportsInterface",
      "outputs": [
        {
          "internalType": "bool",
          "name": "",
          "type": "bool"
        }
      ],
      "stateMutability": "view",
      "type": "function"
    },
    {
      "inputs": [],
      "name": "symbol",
      "outputs": [
        {
          "internalType": "string",
          "name": "",
          "type": "string"
        }
      ],
      "stateMutability": "view",
      "type": "function"
    },
    {
      "inputs": [],
      "name": "totalSupply",
      "outputs": [
        {
          "internalType": "uint256",
          "name": "",
          "type": "uint256"
        }
      ],
      "stateMutability": "view",
      "type": "function"
    },
    {
      "inputs": [
        {
          "internalType": "address",
          "name": "recipient",
          "type": "address"
        },
        {
          "internalType": "uint256",
          "name": "amount",
          "type": "uint256"
        }
      ],
      "name": "transfer",
      "outputs": [
        {
          "internalType": "bool",
          "name": "",
          "type": "bool"
        }
      ],
      "stateMutability": "nonpayable",
      "type": "function"
    },
    {
      "inputs": [
        {
          "internalType": "address",
          "name": "sender",
          "type": "address"
        },
        {
          "internalType": "address",
          "name": "recipient",
          "type": "address"
        },
        {
          "internalType": "uint256",
          "name": "amount",
          "type": "uint256"
        }
      ],
      "name": "transferFrom",
      "outputs": [
        {
          "internalType": "bool",
          "name": "",
          "type": "bool"
        }
      ],
      "stateMutability": "nonpayable",
      "type": "function"
    }
  ],
  "bytecode": "0x60806040523480156200001157600080fd5b5060405162001b9638038062001b968339810160408190526200003491620001d8565b604080518082018252600781526604e465045204c560cc1b60208083019182528351808501909452600484526304e464c560e41b9084015281519192916200007f9160039162000132565b5080516200009590600490602084019062000132565b5050506001600160a01b03831615801590620000b957506001600160a01b03821615155b620000f95760405162461bcd60e51b815260206004820152600c60248201526b4e756c6c204164647265737360a01b604482015260640160405180910390fd5b600580546001600160a01b039485166001600160a01b031991821617909155600680549390941692169190911790915560075562000276565b828054620001409062000220565b90600052602060002090601f016020900481019282620001645760008555620001af565b82601f106200017f57805160ff1916838001178555620001af565b82800160010185558215620001af579182015b82811115620001af57825182559160200191906001019062000192565b50620001bd929150620001c1565b5090565b5b80821115620001bd5760008155600101620001c2565b600080600060608486031215620001ee57600080fd5b8351620001fb816200025d565b60208501519093506200020e816200025d565b80925050604084015190509250925092565b600181811c908216806200023557607f821691505b602082108114156200025757634e487b7160e01b600052602260045260246000fd5b50919050565b6001600160a01b03811681146200027357600080fd5b50565b61191080620002866000396000f3fe608060405234801561001057600080fd5b50600436106101735760003560e01c806347ccca02116100de578063a457c2d711610097578063c399475211610071578063c39947521461036b578063c87ac1a914610374578063dd62ed3e14610387578063f23a6e61146103c057600080fd5b8063a457c2d71461030d578063a9059cbb14610320578063bc197c811461033357600080fd5b806347ccca021461029057806370a08231146102a35780637fddd22c146102cc57806395d89b41146102df5780639c8f9f23146102e75780639cd441da146102fa57600080fd5b806322be3de11161013057806322be3de11461020a57806323b872dd1461023557806328764eea14610248578063313ce5671461025b578063345692131461026a578063395093511461027d57600080fd5b806301ffc9a71461017857806306fdde03146101a05780630902f1ac146101b5578063095ea7b3146101d257806318160ddd146101e55780632071a9f4146101f7575b600080fd5b61018b610186366004611675565b6103df565b60405190151581526020015b60405180910390f35b6101a8610416565b6040516101979190611773565b6101bd6104a8565b60408051928352602083019190915201610197565b61018b6101e0366004611629565b6105b3565b6002545b604051908152602001610197565b6101e96102053660046116f3565b6105c9565b60055461021d906001600160a01b031681565b6040516001600160a01b039091168152602001610197565b61018b610243366004611588565b61061a565b6101e961025636600461169f565b6106d0565b60405160128152602001610197565b6101e961027836600461169f565b6106f4565b61018b61028b366004611629565b610787565b60065461021d906001600160a01b031681565b6101e96102b1366004611490565b6001600160a01b031660009081526020819052604090205490565b6101e96102da36600461169f565b6107be565b6101a86107da565b6101bd6102f536600461169f565b6107e9565b6101e96103083660046116d1565b6108cc565b61018b61031b366004611629565b610a98565b61018b61032e366004611629565b610b33565b6103526103413660046114de565b63bc197c8160e01b95945050505050565b6040516001600160e01b03199091168152602001610197565b6101e960075481565b6101e961038236600461169f565b610b40565b6101e96103953660046114ab565b6001600160a01b03918216600090815260016020908152604080832093909416825291909152205490565b6103526103ce3660046115c4565b63f23a6e6160e01b95945050505050565b60006001600160e01b03198216630271189760e51b148061041057506301ffc9a760e01b6001600160e01b03198316145b92915050565b60606003805461042590611873565b80601f016020809104026020016040519081016040528092919081815260200182805461045190611873565b801561049e5780601f106104735761010080835404028352916020019161049e565b820191906000526020600020905b81548152906001019060200180831161048157829003601f168201915b5050505050905090565b600654600754604051627eeac760e11b8152306004820152602481019190915260009182916001600160a01b039091169062fdd58e9060440160206040518083038186803b1580156104f957600080fd5b505afa15801561050d573d6000803e3d6000fd5b505050506040513d601f19601f8201168201806040525081019061053191906116b8565b6005546040516370a0823160e01b81523060048201529193506001600160a01b0316906370a082319060240160206040518083038186803b15801561057557600080fd5b505afa158015610589573d6000803e3d6000fd5b505050506040513d601f19601f820116820180604052508101906105ad91906116b8565b90509091565b60006105c0338484610bd5565b50600192915050565b6000806105d8856103e5611811565b905060006105e68483611811565b90506000826105f7876103e8611811565b61060191906117d7565b905061060d81836117ef565b93505050505b9392505050565b6000610627848484610cfa565b6001600160a01b0384166000908152600160209081526040808320338452909152902054828110156106b15760405162461bcd60e51b815260206004820152602860248201527f45524332303a207472616e7366657220616d6f756e74206578636565647320616044820152676c6c6f77616e636560c01b60648201526084015b60405180910390fd5b6106c585336106c08685611830565b610bd5565b506001949350505050565b60008060006106dd6104a8565b915091506106ec8483836105c9565b949350505050565b600654600754604051637921219560e11b81526000926001600160a01b03169163f242432a9161072d913391309190889060040161173b565b600060405180830381600087803b15801561074757600080fd5b505af115801561075b573d6000803e3d6000fd5b50505050610768826106d0565b600554909150610782906001600160a01b03163383610ed2565b919050565b3360008181526001602090815260408083206001600160a01b038716845290915281205490916105c09185906106c09086906117d7565b60008060006107cb6104a8565b915091506106ec8482846105c9565b60606004805461042590611873565b6000806000806107f76104a8565b9150915061080460025490565b61080e8387611811565b61081891906117ef565b935061082360025490565b61082d8287611811565b61083791906117ef565b92506108433386610f3a565b600654600754604051637921219560e11b81526001600160a01b039092169163f242432a9161087a91309133918a9060040161173b565b600060405180830381600087803b15801561089457600080fd5b505af11580156108a8573d6000803e3d6000fd5b50506005546108c592506001600160a01b03169050303386611089565b5050915091565b60006108d760025490565b61096457600654600754604051637921219560e11b81526001600160a01b039092169163f242432a916109129133913091899060040161173b565b600060405180830381600087803b15801561092c57600080fd5b505af1158015610940573d6000803e3d6000fd5b505060055461095d92506001600160a01b03169050333085611089565b5080610a8e565b60008061096f6104a8565b90925090506000826109818388611811565b61098b91906117ef565b6109969060016117d7565b9050848111156109e85760405162461bcd60e51b815260206004820152601c60248201527f496e73756666696369656e7420537461626c652050726f76696465640000000060448201526064016106a8565b600654600754604051637921219560e11b81526001600160a01b039092169163f242432a91610a1f91339130918c9060040161173b565b600060405180830381600087803b158015610a3957600080fd5b505af1158015610a4d573d6000803e3d6000fd5b5050600554610a6a92506001600160a01b03169050333084611089565b82610a7460025490565b610a7e9088611811565b610a8891906117ef565b93505050505b61041033826110c7565b3360009081526001602090815260408083206001600160a01b038616845290915281205482811015610b1a5760405162461bcd60e51b815260206004820152602560248201527f45524332303a2064656372656173656420616c6c6f77616e63652062656c6f77604482015264207a65726f60d81b60648201526084016106a8565b610b2933856106c08685611830565b5060019392505050565b60006105c0338484610cfa565b600554600090610b5b906001600160a01b0316333085611089565b610b64826107be565b600654600754604051637921219560e11b81529293506001600160a01b039091169163f242432a91610b9e9130913391879060040161173b565b600060405180830381600087803b158015610bb857600080fd5b505af1158015610bcc573d6000803e3d6000fd5b50505050919050565b6001600160a01b038316610c375760405162461bcd60e51b8152602060048201526024808201527f45524332303a20617070726f76652066726f6d20746865207a65726f206164646044820152637265737360e01b60648201526084016106a8565b6001600160a01b038216610c985760405162461bcd60e51b815260206004820152602260248201527f45524332303a20617070726f766520746f20746865207a65726f206164647265604482015261737360f01b60648201526084016106a8565b6001600160a01b0383811660008181526001602090815260408083209487168084529482529182902085905590518481527f8c5be1e5ebec7d5bd14f71427d1e84f3dd0314c0f7b2291e5b200ac8c7c3b92591015b60405180910390a3505050565b6001600160a01b038316610d5e5760405162461bcd60e51b815260206004820152602560248201527f45524332303a207472616e736665722066726f6d20746865207a65726f206164604482015264647265737360d81b60648201526084016106a8565b6001600160a01b038216610dc05760405162461bcd60e51b815260206004820152602360248201527f45524332303a207472616e7366657220746f20746865207a65726f206164647260448201526265737360e81b60648201526084016106a8565b6001600160a01b03831660009081526020819052604090205481811015610e385760405162461bcd60e51b815260206004820152602660248201527f45524332303a207472616e7366657220616d6f756e7420657863656564732062604482015265616c616e636560d01b60648201526084016106a8565b610e428282611830565b6001600160a01b038086166000908152602081905260408082209390935590851681529081208054849290610e789084906117d7565b92505081905550826001600160a01b0316846001600160a01b03167fddf252ad1be2c89b69c2b068fc378daa952ba7f163c4a11628f55a4df523b3ef84604051610ec491815260200190565b60405180910390a350505050565b6040516001600160a01b038316602482015260448101829052610f3590849063a9059cbb60e01b906064015b60408051601f198184030181529190526020810180516001600160e01b03166001600160e01b0319909316929092179091526111a6565b505050565b6001600160a01b038216610f9a5760405162461bcd60e51b815260206004820152602160248201527f45524332303a206275726e2066726f6d20746865207a65726f206164647265736044820152607360f81b60648201526084016106a8565b6001600160a01b0382166000908152602081905260409020548181101561100e5760405162461bcd60e51b815260206004820152602260248201527f45524332303a206275726e20616d6f756e7420657863656564732062616c616e604482015261636560f01b60648201526084016106a8565b6110188282611830565b6001600160a01b03841660009081526020819052604081209190915560028054849290611046908490611830565b90915550506040518281526000906001600160a01b038516907fddf252ad1be2c89b69c2b068fc378daa952ba7f163c4a11628f55a4df523b3ef90602001610ced565b6040516001600160a01b03808516602483015283166044820152606481018290526110c19085906323b872dd60e01b90608401610efe565b50505050565b6001600160a01b03821661111d5760405162461bcd60e51b815260206004820152601f60248201527f45524332303a206d696e7420746f20746865207a65726f20616464726573730060448201526064016106a8565b806002600082825461112f91906117d7565b90915550506001600160a01b0382166000908152602081905260408120805483929061115c9084906117d7565b90915550506040518181526001600160a01b038316906000907fddf252ad1be2c89b69c2b068fc378daa952ba7f163c4a11628f55a4df523b3ef9060200160405180910390a35050565b60006111fb826040518060400160405280602081526020017f5361666545524332303a206c6f772d6c6576656c2063616c6c206661696c6564815250856001600160a01b03166112789092919063ffffffff16565b805190915015610f3557808060200190518101906112199190611653565b610f355760405162461bcd60e51b815260206004820152602a60248201527f5361666545524332303a204552433230206f7065726174696f6e20646964206e6044820152691bdd081cdd58d8d9595960b21b60648201526084016106a8565b60606106ec848460008585843b6112d15760405162461bcd60e51b815260206004820152601d60248201527f416464726573733a2063616c6c20746f206e6f6e2d636f6e747261637400000060448201526064016106a8565b600080866001600160a01b031685876040516112ed919061171f565b60006040518083038185875af1925050503d806000811461132a576040519150601f19603f3d011682016040523d82523d6000602084013e61132f565b606091505b509150915061133f82828661134a565b979650505050505050565b60608315611359575081610613565b8251156113695782518084602001fd5b8160405162461bcd60e51b81526004016106a89190611773565b80356001600160a01b038116811461078257600080fd5b600082601f8301126113ab57600080fd5b8135602067ffffffffffffffff8211156113c7576113c76118c4565b8160051b6113d68282016117a6565b8381528281019086840183880185018910156113f157600080fd5b600093505b858410156114145780358352600193909301929184019184016113f6565b50979650505050505050565b600082601f83011261143157600080fd5b813567ffffffffffffffff81111561144b5761144b6118c4565b61145e601f8201601f19166020016117a6565b81815284602083860101111561147357600080fd5b816020850160208301376000918101602001919091529392505050565b6000602082840312156114a257600080fd5b61061382611383565b600080604083850312156114be57600080fd5b6114c783611383565b91506114d560208401611383565b90509250929050565b600080600080600060a086880312156114f657600080fd5b6114ff86611383565b945061150d60208701611383565b9350604086013567ffffffffffffffff8082111561152a57600080fd5b61153689838a0161139a565b9450606088013591508082111561154c57600080fd5b61155889838a0161139a565b9350608088013591508082111561156e57600080fd5b5061157b88828901611420565b9150509295509295909350565b60008060006060848603121561159d57600080fd5b6115a684611383565b92506115b460208501611383565b9150604084013590509250925092565b600080600080600060a086880312156115dc57600080fd5b6115e586611383565b94506115f360208701611383565b93506040860135925060608601359150608086013567ffffffffffffffff81111561161d57600080fd5b61157b88828901611420565b6000806040838503121561163c57600080fd5b61164583611383565b946020939093013593505050565b60006020828403121561166557600080fd5b8151801515811461061357600080fd5b60006020828403121561168757600080fd5b81356001600160e01b03198116811461061357600080fd5b6000602082840312156116b157600080fd5b5035919050565b6000602082840312156116ca57600080fd5b5051919050565b600080604083850312156116e457600080fd5b50508035926020909101359150565b60008060006060848603121561170857600080fd5b505081359360208301359350604090920135919050565b60008251611731818460208701611847565b9190910192915050565b6001600160a01b0394851681529290931660208301526040820152606081019190915260a06080820181905260009082015260c00190565b6020815260008251806020840152611792816040850160208701611847565b601f01601f19169190910160400192915050565b604051601f8201601f1916810167ffffffffffffffff811182821017156117cf576117cf6118c4565b604052919050565b600082198211156117ea576117ea6118ae565b500190565b60008261180c57634e487b7160e01b600052601260045260246000fd5b500490565b600081600019048311821515161561182b5761182b6118ae565b500290565b600082821015611842576118426118ae565b500390565b60005b8381101561186257818101518382015260200161184a565b838111156110c15750506000910152565b600181811c9082168061188757607f821691505b602082108114156118a857634e487b7160e01b600052602260045260246000fd5b50919050565b634e487b7160e01b600052601160045260246000fd5b634e487b7160e01b600052604160045260246000fdfea264697066735822122067de4c7335b281e7226d2eb806f31527ae1e6a6cbbff5f5ab4cb3278ddc883fa64736f6c63430008060033",
  "linkReferences": {},
  "deployedLinkReferences": {}
}