{
  "_format": "hh-sol-artifact-1",
  "contractName": "NFTFaucet",
  "sourceName": "contracts/Mocks/NFTFaucet.sol",
  "abi": [
    {
      "inputs": [
        {
          "internalType": "contract IERC1155",
          "name": "_ERC1155NFT",
          "type": "address"
        },
        {
          "internalType": "uint256",
          "name": "_nftID",
          "type": "uint256"
        }
      ],
      "stateMutability": "nonpayable",
      "type": "constructor"
    },
    {
      "inputs": [],
      "name": "mint",
      "outputs": [],
      "stateMutability": "nonpayable",
      "type": "function"
    },
    {
      "inputs": [],
      "name": "nft",
      "outputs": [
        {
          "internalType": "contract IERC1155",
          "name": "",
          "type": "address"
        }
      ],
      "stateMutability": "view",
      "type": "function"
    },
    {
      "inputs": [],
      "name": "nftID",
      "outputs": [
        {
          "internalType": "uint256",
          "name": "",
          "type": "uint256"
        }
      ],
      "stateMutability": "view",
      "type": "function"
    },
    {
      "inputs": [
        {
          "internalType": "address",
          "name": "",
          "type": "address"
        },
        {
          "internalType": "address",
          "name": "",
          "type": "address"
        },
        {
          "internalType": "uint256[]",
          "name": "",
          "type": "uint256[]"
        },
        {
          "internalType": "uint256[]",
          "name": "",
          "type": "uint256[]"
        },
        {
          "internalType": "bytes",
          "name": "",
          "type": "bytes"
        }
      ],
      "name": "onERC1155BatchReceived",
      "outputs": [
        {
          "internalType": "bytes4",
          "name": "",
          "type": "bytes4"
        }
      ],
      "stateMutability": "nonpayable",
      "type": "function"
    },
    {
      "inputs": [
        {
          "internalType": "address",
          "name": "",
          "type": "address"
        },
        {
          "internalType": "address",
          "name": "",
          "type": "address"
        },
        {
          "internalType": "uint256",
          "name": "",
          "type": "uint256"
        },
        {
          "internalType": "uint256",
          "name": "",
          "type": "uint256"
        },
        {
          "internalType": "bytes",
          "name": "",
          "type": "bytes"
        }
      ],
      "name": "onERC1155Received",
      "outputs": [
        {
          "internalType": "bytes4",
          "name": "",
          "type": "bytes4"
        }
      ],
      "stateMutability": "nonpayable",
      "type": "function"
    },
    {
      "inputs": [
        {
          "internalType": "bytes4",
          "name": "interfaceId",
          "type": "bytes4"
        }
      ],
      "name": "supportsInterface",
      "outputs": [
        {
          "internalType": "bool",
          "name": "",
          "type": "bool"
        }
      ],
      "stateMutability": "view",
      "type": "function"
    }
  ],
  "bytecode": "0x608060405234801561001057600080fd5b5060405161056038038061056083398101604081905261002f91610058565b600080546001600160a01b0319166001600160a01b039390931692909217909155600155610092565b6000806040838503121561006b57600080fd5b82516001600160a01b038116811461008257600080fd5b6020939093015192949293505050565b6104bf806100a16000396000f3fe608060405234801561001057600080fd5b50600436106100625760003560e01c806301ffc9a7146100675780631249c58b1461008f57806347ccca0214610099578063bc197c81146100c4578063c3994752146100fc578063f23a6e6114610113575b600080fd5b61007a610075366004610411565b610132565b60405190151581526020015b60405180910390f35b610097610169565b005b6000546100ac906001600160a01b031681565b6040516001600160a01b039091168152602001610086565b6100e36100d2366004610302565b63bc197c8160e01b95945050505050565b6040516001600160e01b03199091168152602001610086565b61010560015481565b604051908152602001610086565b6100e36101213660046103ac565b63f23a6e6160e01b95945050505050565b60006001600160e01b03198216630271189760e51b148061016357506301ffc9a760e01b6001600160e01b03198316145b92915050565b6000805460018054604051637921219560e11b81523060048201523360248201526044810191909152606481019190915260a0608482015260a48101929092526001600160a01b03169063f242432a9060c401600060405180830381600087803b1580156101d657600080fd5b505af11580156101ea573d6000803e3d6000fd5b50505050565b80356001600160a01b038116811461020757600080fd5b919050565b600082601f83011261021d57600080fd5b8135602067ffffffffffffffff82111561023957610239610473565b8160051b610248828201610442565b83815282810190868401838801850189101561026357600080fd5b600093505b85841015610286578035835260019390930192918401918401610268565b50979650505050505050565b600082601f8301126102a357600080fd5b813567ffffffffffffffff8111156102bd576102bd610473565b6102d0601f8201601f1916602001610442565b8181528460208386010111156102e557600080fd5b816020850160208301376000918101602001919091529392505050565b600080600080600060a0868803121561031a57600080fd5b610323866101f0565b9450610331602087016101f0565b9350604086013567ffffffffffffffff8082111561034e57600080fd5b61035a89838a0161020c565b9450606088013591508082111561037057600080fd5b61037c89838a0161020c565b9350608088013591508082111561039257600080fd5b5061039f88828901610292565b9150509295509295909350565b600080600080600060a086880312156103c457600080fd5b6103cd866101f0565b94506103db602087016101f0565b93506040860135925060608601359150608086013567ffffffffffffffff81111561040557600080fd5b61039f88828901610292565b60006020828403121561042357600080fd5b81356001600160e01b03198116811461043b57600080fd5b9392505050565b604051601f8201601f1916810167ffffffffffffffff8111828210171561046b5761046b610473565b604052919050565b634e487b7160e01b600052604160045260246000fdfea2646970667358221220c4cb95316017f2a9d4f96710a2b12bb363468976de07e0e504eae6427c0c914364736f6c63430008060033",
  "linkReferences": {},
  "deployedLinkReferences": {}
}