{
  "address": "0x15df3a1E8FEAE4a20C8F508D9B8af7c2E631566F",
  "abi": [
    {
      "inputs": [
        {
          "internalType": "address",
          "name": "_aDAI",
          "type": "address"
        }
      ],
      "stateMutability": "nonpayable",
      "type": "constructor"
    },
    {
      "inputs": [],
      "name": "DAI",
      "outputs": [
        {
          "internalType": "contract IERC20",
          "name": "",
          "type": "address"
        }
      ],
      "stateMutability": "view",
      "type": "function"
    },
    {
      "inputs": [],
      "name": "aDAI",
      "outputs": [
        {
          "internalType": "contract IERC20",
          "name": "",
          "type": "address"
        }
      ],
      "stateMutability": "view",
      "type": "function"
    },
    {
      "inputs": [],
      "name": "aaveLendingPool",
      "outputs": [
        {
          "internalType": "address",
          "name": "",
          "type": "address"
        }
      ],
      "stateMutability": "view",
      "type": "function"
    },
    {
      "inputs": [
        {
          "internalType": "contract INFTPool",
          "name": "nftPool",
          "type": "address"
        },
        {
          "internalType": "uint256",
          "name": "_ERC1155Amount",
          "type": "uint256"
        },
        {
          "internalType": "uint256",
          "name": "_maxERC20Amount",
          "type": "uint256"
        },
        {
          "internalType": "uint256",
          "name": "_deadline",
          "type": "uint256"
        }
      ],
      "name": "addLiquidityWithDAI",
      "outputs": [
        {
          "internalType": "uint256",
          "name": "ERC20Amount",
          "type": "uint256"
        },
        {
          "internalType": "uint256",
          "name": "lpMinted",
          "type": "uint256"
        }
      ],
      "stateMutability": "nonpayable",
      "type": "function"
    },
    {
      "inputs": [
        {
          "internalType": "address",
          "name": "",
          "type": "address"
        },
        {
          "internalType": "address",
          "name": "",
          "type": "address"
        },
        {
          "internalType": "uint256[]",
          "name": "",
          "type": "uint256[]"
        },
        {
          "internalType": "uint256[]",
          "name": "",
          "type": "uint256[]"
        },
        {
          "internalType": "bytes",
          "name": "",
          "type": "bytes"
        }
      ],
      "name": "onERC1155BatchReceived",
      "outputs": [
        {
          "internalType": "bytes4",
          "name": "",
          "type": "bytes4"
        }
      ],
      "stateMutability": "nonpayable",
      "type": "function"
    },
    {
      "inputs": [
        {
          "internalType": "address",
          "name": "",
          "type": "address"
        },
        {
          "internalType": "address",
          "name": "",
          "type": "address"
        },
        {
          "internalType": "uint256",
          "name": "",
          "type": "uint256"
        },
        {
          "internalType": "uint256",
          "name": "",
          "type": "uint256"
        },
        {
          "internalType": "bytes",
          "name": "",
          "type": "bytes"
        }
      ],
      "name": "onERC1155Received",
      "outputs": [
        {
          "internalType": "bytes4",
          "name": "",
          "type": "bytes4"
        }
      ],
      "stateMutability": "nonpayable",
      "type": "function"
    },
    {
      "inputs": [
        {
          "internalType": "bytes4",
          "name": "interfaceId",
          "type": "bytes4"
        }
      ],
      "name": "supportsInterface",
      "outputs": [
        {
          "internalType": "bool",
          "name": "",
          "type": "bool"
        }
      ],
      "stateMutability": "view",
      "type": "function"
    }
  ],
  "transactionHash": "0x6c6599cef9909bae9d312fa5360eb66052ed9c4758ea52a0387b0b976023368f",
  "args": [
    "0xdCf0aF9e59C002FA3AA091a46196b37530FD48a8"
  ],
  "solcInputHash": "523f54fb56adfe22dccb5aeae18c0811",
  "bytecode": "0x60a060405234801561001057600080fd5b50604051610f66380380610f6683398101604081905261002f916100e5565b806001600160a01b03166080816001600160a01b031660601b81525050806001600160a01b0316637535d2466040518163ffffffff1660e01b8152600401602060405180830381600087803b15801561008757600080fd5b505af115801561009b573d6000803e3d6000fd5b505050506040513d601f19601f820116820180604052508101906100bf91906100e5565b600080546001600160a01b0319166001600160a01b039290921691909117905550610115565b6000602082840312156100f757600080fd5b81516001600160a01b038116811461010e57600080fd5b9392505050565b60805160601c610e1f6101476000396000818160af015281816104410152818161047801526105ae0152610e1f6000f3fe608060405234801561001057600080fd5b506004361061007d5760003560e01c8063bc197c811161005b578063bc197c8114610111578063e0bab4c414610149578063e9d337b814610164578063f23a6e611461017757600080fd5b806301ffc9a7146100825780631a38a4fb146100aa5780631c4991ae146100e9575b600080fd5b610095610090366004610c2b565b610196565b60405190151581526020015b60405180910390f35b6100d17f000000000000000000000000000000000000000000000000000000000000000081565b6040516001600160a01b0390911681526020016100a1565b6100fc6100f7366004610c72565b6101cd565b604080519283526020830191909152016100a1565b61013061011f366004610af2565b63bc197c8160e01b95945050505050565b6040516001600160e01b031990911681526020016100a1565b6100d173ff795577d9ac8bd7d90ee22b6c1703490b6512fd81565b6000546100d1906001600160a01b031681565b610130610185366004610ba0565b63f23a6e6160e01b95945050505050565b60006001600160e01b03198216630271189760e51b14806101c757506301ffc9a760e01b6001600160e01b03198316145b92915050565b6000806101f073ff795577d9ac8bd7d90ee22b6c1703490b6512fd3330876105e1565b6000866001600160a01b03166373ee45086040518163ffffffff1660e01b815260040160206040518083038186803b15801561022b57600080fd5b505afa15801561023f573d6000803e3d6000fd5b505050506040513d601f19601f820116820180604052508101906102639190610c55565b90506000876001600160a01b031663ae7eaa046040518163ffffffff1660e01b815260040160206040518083038186803b1580156102a057600080fd5b505afa1580156102b4573d6000803e3d6000fd5b505050506040513d601f19601f820116820180604052508101906102d89190610cad565b604051637921219560e11b8152336004820152306024820152604481018290526064810189905260a06084820152600060a48201529091506001600160a01b0383169063f242432a9060c401600060405180830381600087803b15801561033e57600080fd5b505af1158015610352573d6000803e3d6000fd5b505060008054610383935073ff795577d9ac8bd7d90ee22b6c1703490b6512fd92506001600160a01b031690610652565b6000546103af9073ff795577d9ac8bd7d90ee22b6c1703490b6512fd906001600160a01b031688610652565b6000805460405163e8eda9df60e01b815273ff795577d9ac8bd7d90ee22b6c1703490b6512fd60048201526024810189905230604482015260648101929092526001600160a01b03169063e8eda9df90608401600060405180830381600087803b15801561041c57600080fd5b505af1158015610430573d6000803e3d6000fd5b5061046b9250506001600160a01b037f0000000000000000000000000000000000000000000000000000000000000000169050896000610652565b61049f6001600160a01b037f0000000000000000000000000000000000000000000000000000000000000000168988610652565b60405163a22cb46560e01b81526001600160a01b0389811660048301526001602483015283169063a22cb46590604401600060405180830381600087803b1580156104e957600080fd5b505af11580156104fd573d6000803e3d6000fd5b505060405163422f104360e01b8152600481018a905260248101899052604481018890526001600160a01b038b16925063422f104391506064016040805180830381600087803b15801561055057600080fd5b505af1158015610564573d6000803e3d6000fd5b505050506040513d601f19601f820116820180604052508101906105889190610cc6565b909450925060006105998588610d6a565b905080156105d5576105d56001600160a01b037f0000000000000000000000000000000000000000000000000000000000000000163383610780565b50505094509492505050565b6040516001600160a01b038085166024830152831660448201526064810182905261064c9085906323b872dd60e01b906084015b60408051601f198184030181529190526020810180516001600160e01b03166001600160e01b0319909316929092179091526107b0565b50505050565b8015806106db5750604051636eb1769f60e11b81523060048201526001600160a01b03838116602483015284169063dd62ed3e9060440160206040518083038186803b1580156106a157600080fd5b505afa1580156106b5573d6000803e3d6000fd5b505050506040513d601f19601f820116820180604052508101906106d99190610cad565b155b61074b5760405162461bcd60e51b815260206004820152603660248201527f5361666545524332303a20617070726f76652066726f6d206e6f6e2d7a65726f60448201527520746f206e6f6e2d7a65726f20616c6c6f77616e636560501b60648201526084015b60405180910390fd5b6040516001600160a01b03831660248201526044810182905261077b90849063095ea7b360e01b90606401610615565b505050565b6040516001600160a01b03831660248201526044810182905261077b90849063a9059cbb60e01b90606401610615565b6000610805826040518060400160405280602081526020017f5361666545524332303a206c6f772d6c6576656c2063616c6c206661696c6564815250856001600160a01b03166108829092919063ffffffff16565b80519091501561077b57808060200190518101906108239190610c09565b61077b5760405162461bcd60e51b815260206004820152602a60248201527f5361666545524332303a204552433230206f7065726174696f6e20646964206e6044820152691bdd081cdd58d8d9595960b21b6064820152608401610742565b6060610891848460008561089b565b90505b9392505050565b6060824710156108fc5760405162461bcd60e51b815260206004820152602660248201527f416464726573733a20696e73756666696369656e742062616c616e636520666f6044820152651c8818d85b1b60d21b6064820152608401610742565b843b61094a5760405162461bcd60e51b815260206004820152601d60248201527f416464726573733a2063616c6c20746f206e6f6e2d636f6e74726163740000006044820152606401610742565b600080866001600160a01b031685876040516109669190610cea565b60006040518083038185875af1925050503d80600081146109a3576040519150601f19603f3d011682016040523d82523d6000602084013e6109a8565b606091505b50915091506109b88282866109c3565b979650505050505050565b606083156109d2575081610894565b8251156109e25782518084602001fd5b8160405162461bcd60e51b81526004016107429190610d06565b600082601f830112610a0d57600080fd5b8135602067ffffffffffffffff821115610a2957610a29610dbb565b8160051b610a38828201610d39565b838152828101908684018388018501891015610a5357600080fd5b600093505b85841015610a76578035835260019390930192918401918401610a58565b50979650505050505050565b600082601f830112610a9357600080fd5b813567ffffffffffffffff811115610aad57610aad610dbb565b610ac0601f8201601f1916602001610d39565b818152846020838601011115610ad557600080fd5b816020850160208301376000918101602001919091529392505050565b600080600080600060a08688031215610b0a57600080fd5b8535610b1581610dd1565b94506020860135610b2581610dd1565b9350604086013567ffffffffffffffff80821115610b4257600080fd5b610b4e89838a016109fc565b94506060880135915080821115610b6457600080fd5b610b7089838a016109fc565b93506080880135915080821115610b8657600080fd5b50610b9388828901610a82565b9150509295509295909350565b600080600080600060a08688031215610bb857600080fd5b8535610bc381610dd1565b94506020860135610bd381610dd1565b93506040860135925060608601359150608086013567ffffffffffffffff811115610bfd57600080fd5b610b9388828901610a82565b600060208284031215610c1b57600080fd5b8151801515811461089457600080fd5b600060208284031215610c3d57600080fd5b81356001600160e01b03198116811461089457600080fd5b600060208284031215610c6757600080fd5b815161089481610dd1565b60008060008060808587031215610c8857600080fd5b8435610c9381610dd1565b966020860135965060408601359560600135945092505050565b600060208284031215610cbf57600080fd5b5051919050565b60008060408385031215610cd957600080fd5b505080516020909101519092909150565b60008251610cfc818460208701610d8f565b9190910192915050565b6020815260008251806020840152610d25816040850160208701610d8f565b601f01601f19169190910160400192915050565b604051601f8201601f1916810167ffffffffffffffff81118282101715610d6257610d62610dbb565b604052919050565b600082821015610d8a57634e487b7160e01b600052601160045260246000fd5b500390565b60005b83811015610daa578181015183820152602001610d92565b8381111561064c5750506000910152565b634e487b7160e01b600052604160045260246000fd5b6001600160a01b0381168114610de657600080fd5b5056fea2646970667358221220516764d3eab4d02e4e74bc76d7d58137ff2228db160da96d43b3cc482411d45c64736f6c63430008060033",
  "devdoc": {
    "kind": "dev",
    "methods": {
      "supportsInterface(bytes4)": {
        "details": "See {IERC165-supportsInterface}."
      }
    },
    "version": 1
  },
  "userdoc": {
    "kind": "user",
    "methods": {},
    "version": 1
  },
  "storageLayout": {
    "storage": [
      {
        "astId": 2529,
        "contract": "contracts/AaveHelper.sol:AaveHelper",
        "label": "aaveLendingPool",
        "offset": 0,
        "slot": "0",
        "type": "t_address"
      }
    ],
    "types": {
      "t_address": {
        "encoding": "inplace",
        "label": "address",
        "numberOfBytes": "20"
      }
    }
  }
}