{
  "address": "0x4e8C68Dbfb57709Bd94886d67f0A5Dfeca258A3b",
  "abi": [
    {
      "inputs": [
        {
          "internalType": "address",
          "name": "_aDAI",
          "type": "address"
        }
      ],
      "stateMutability": "nonpayable",
      "type": "constructor"
    },
    {
      "inputs": [],
      "name": "DAI",
      "outputs": [
        {
          "internalType": "contract IERC20",
          "name": "",
          "type": "address"
        }
      ],
      "stateMutability": "view",
      "type": "function"
    },
    {
      "inputs": [],
      "name": "aDAI",
      "outputs": [
        {
          "internalType": "contract IERC20",
          "name": "",
          "type": "address"
        }
      ],
      "stateMutability": "view",
      "type": "function"
    },
    {
      "inputs": [],
      "name": "aaveLendingPool",
      "outputs": [
        {
          "internalType": "address",
          "name": "",
          "type": "address"
        }
      ],
      "stateMutability": "view",
      "type": "function"
    },
    {
      "inputs": [
        {
          "internalType": "contract INFTPool",
          "name": "nftPool",
          "type": "address"
        },
        {
          "internalType": "uint256",
          "name": "_ERC1155Amount",
          "type": "uint256"
        },
        {
          "internalType": "uint256",
          "name": "_maxERC20Amount",
          "type": "uint256"
        },
        {
          "internalType": "uint256",
          "name": "_deadline",
          "type": "uint256"
        }
      ],
      "name": "addLiquidityWithDAI",
      "outputs": [
        {
          "internalType": "uint256",
          "name": "ERC20Amount",
          "type": "uint256"
        },
        {
          "internalType": "uint256",
          "name": "lpMinted",
          "type": "uint256"
        }
      ],
      "stateMutability": "nonpayable",
      "type": "function"
    },
    {
      "inputs": [
        {
          "internalType": "address",
          "name": "",
          "type": "address"
        },
        {
          "internalType": "address",
          "name": "",
          "type": "address"
        },
        {
          "internalType": "uint256[]",
          "name": "",
          "type": "uint256[]"
        },
        {
          "internalType": "uint256[]",
          "name": "",
          "type": "uint256[]"
        },
        {
          "internalType": "bytes",
          "name": "",
          "type": "bytes"
        }
      ],
      "name": "onERC1155BatchReceived",
      "outputs": [
        {
          "internalType": "bytes4",
          "name": "",
          "type": "bytes4"
        }
      ],
      "stateMutability": "nonpayable",
      "type": "function"
    },
    {
      "inputs": [
        {
          "internalType": "address",
          "name": "",
          "type": "address"
        },
        {
          "internalType": "address",
          "name": "",
          "type": "address"
        },
        {
          "internalType": "uint256",
          "name": "",
          "type": "uint256"
        },
        {
          "internalType": "uint256",
          "name": "",
          "type": "uint256"
        },
        {
          "internalType": "bytes",
          "name": "",
          "type": "bytes"
        }
      ],
      "name": "onERC1155Received",
      "outputs": [
        {
          "internalType": "bytes4",
          "name": "",
          "type": "bytes4"
        }
      ],
      "stateMutability": "nonpayable",
      "type": "function"
    },
    {
      "inputs": [
        {
          "internalType": "bytes4",
          "name": "interfaceId",
          "type": "bytes4"
        }
      ],
      "name": "supportsInterface",
      "outputs": [
        {
          "internalType": "bool",
          "name": "",
          "type": "bool"
        }
      ],
      "stateMutability": "view",
      "type": "function"
    }
  ],
  "transactionHash": "0x307c20738db2e690198fb9e665478eaacfa835145bac3614b50f0a270707a08a",
  "args": [
    "0xdCf0aF9e59C002FA3AA091a46196b37530FD48a8"
  ],
  "solcInputHash": "cfb643b8f75f2dfbb3d4fe6b28eae454",
  "bytecode": "0x60a060405234801561001057600080fd5b5060405161109338038061109383398101604081905261002f916100e5565b806001600160a01b03166080816001600160a01b031660601b81525050806001600160a01b0316637535d2466040518163ffffffff1660e01b8152600401602060405180830381600087803b15801561008757600080fd5b505af115801561009b573d6000803e3d6000fd5b505050506040513d601f19601f820116820180604052508101906100bf91906100e5565b600080546001600160a01b0319166001600160a01b039290921691909117905550610115565b6000602082840312156100f757600080fd5b81516001600160a01b038116811461010e57600080fd5b9392505050565b60805160601c610f536101406000396000818160af0152818161059701526105ce0152610f536000f3fe608060405234801561001057600080fd5b506004361061007d5760003560e01c8063bc197c811161005b578063bc197c8114610111578063e0bab4c414610149578063e9d337b814610164578063f23a6e611461017757600080fd5b806301ffc9a7146100825780631a38a4fb146100aa5780631c4991ae146100e9575b600080fd5b610095610090366004610d84565b610196565b60405190151581526020015b60405180910390f35b6100d17f000000000000000000000000000000000000000000000000000000000000000081565b6040516001600160a01b0390911681526020016100a1565b6100fc6100f7366004610dcb565b6101cd565b604080519283526020830191909152016100a1565b61013061011f366004610c4b565b63bc197c8160e01b95945050505050565b6040516001600160e01b031990911681526020016100a1565b6100d173ff795577d9ac8bd7d90ee22b6c1703490b6512fd81565b6000546100d1906001600160a01b031681565b610130610185366004610cf9565b63f23a6e6160e01b95945050505050565b60006001600160e01b03198216630271189760e51b14806101c757506301ffc9a760e01b6001600160e01b03198316145b92915050565b600080856001600160a01b03166318160ddd6040518163ffffffff1660e01b815260040160206040518083038186803b15801561020957600080fd5b505afa15801561021d573d6000803e3d6000fd5b505050506040513d601f19601f820116820180604052508101906102419190610e06565b61024d57839150610326565b6040516349dcc43f60e11b8152600481018690526001600160a01b038716906393b9887e9060240160206040518083038186803b15801561028d57600080fd5b505afa1580156102a1573d6000803e3d6000fd5b505050506040513d601f19601f820116820180604052508101906102c59190610e06565b9150838211156103265760405162461bcd60e51b815260206004820152602160248201527f48656c7065723a20496e73756666696369656e7420455243323020416d6f756e6044820152601d60fa1b60648201526084015b60405180910390fd5b61034673ff795577d9ac8bd7d90ee22b6c1703490b6512fd33308561076f565b6000866001600160a01b03166373ee45086040518163ffffffff1660e01b815260040160206040518083038186803b15801561038157600080fd5b505afa158015610395573d6000803e3d6000fd5b505050506040513d601f19601f820116820180604052508101906103b99190610dae565b90506000876001600160a01b031663ae7eaa046040518163ffffffff1660e01b815260040160206040518083038186803b1580156103f657600080fd5b505afa15801561040a573d6000803e3d6000fd5b505050506040513d601f19601f8201168201806040525081019061042e9190610e06565b604051637921219560e11b8152336004820152306024820152604481018290526064810189905260a06084820152600060a48201529091506001600160a01b0383169063f242432a9060c401600060405180830381600087803b15801561049457600080fd5b505af11580156104a8573d6000803e3d6000fd5b5050600080546104d9935073ff795577d9ac8bd7d90ee22b6c1703490b6512fd92506001600160a01b0316906107e0565b6000546105059073ff795577d9ac8bd7d90ee22b6c1703490b6512fd906001600160a01b0316866107e0565b6000805460405163e8eda9df60e01b815273ff795577d9ac8bd7d90ee22b6c1703490b6512fd60048201526024810187905230604482015260648101929092526001600160a01b03169063e8eda9df90608401600060405180830381600087803b15801561057257600080fd5b505af1158015610586573d6000803e3d6000fd5b506105c19250506001600160a01b037f00000000000000000000000000000000000000000000000000000000000000001690508960006107e0565b6105f56001600160a01b037f00000000000000000000000000000000000000000000000000000000000000001689866107e0565b60405163a22cb46560e01b81526001600160a01b0389811660048301526001602483015283169063a22cb46590604401600060405180830381600087803b15801561063f57600080fd5b505af1158015610653573d6000803e3d6000fd5b505060405163422f104360e01b8152600481018a905260248101879052604481018890526001600160a01b038b16925063422f104391506064016040805180830381600087803b1580156106a657600080fd5b505af11580156106ba573d6000803e3d6000fd5b505050506040513d601f19601f820116820180604052508101906106de9190610e1f565b60405163a9059cbb60e01b81523360048201526024810182905291955093506001600160a01b0389169063a9059cbb90604401602060405180830381600087803b15801561072b57600080fd5b505af115801561073f573d6000803e3d6000fd5b505050506040513d601f19601f820116820180604052508101906107639190610d62565b50505094509492505050565b6040516001600160a01b03808516602483015283166044820152606481018290526107da9085906323b872dd60e01b906084015b60408051601f198184030181529190526020810180516001600160e01b03166001600160e01b031990931692909217909152610909565b50505050565b8015806108695750604051636eb1769f60e11b81523060048201526001600160a01b03838116602483015284169063dd62ed3e9060440160206040518083038186803b15801561082f57600080fd5b505afa158015610843573d6000803e3d6000fd5b505050506040513d601f19601f820116820180604052508101906108679190610e06565b155b6108d45760405162461bcd60e51b815260206004820152603660248201527f5361666545524332303a20617070726f76652066726f6d206e6f6e2d7a65726f60448201527520746f206e6f6e2d7a65726f20616c6c6f77616e636560501b606482015260840161031d565b6040516001600160a01b03831660248201526044810182905261090490849063095ea7b360e01b906064016107a3565b505050565b600061095e826040518060400160405280602081526020017f5361666545524332303a206c6f772d6c6576656c2063616c6c206661696c6564815250856001600160a01b03166109db9092919063ffffffff16565b805190915015610904578080602001905181019061097c9190610d62565b6109045760405162461bcd60e51b815260206004820152602a60248201527f5361666545524332303a204552433230206f7065726174696f6e20646964206e6044820152691bdd081cdd58d8d9595960b21b606482015260840161031d565b60606109ea84846000856109f4565b90505b9392505050565b606082471015610a555760405162461bcd60e51b815260206004820152602660248201527f416464726573733a20696e73756666696369656e742062616c616e636520666f6044820152651c8818d85b1b60d21b606482015260840161031d565b843b610aa35760405162461bcd60e51b815260206004820152601d60248201527f416464726573733a2063616c6c20746f206e6f6e2d636f6e7472616374000000604482015260640161031d565b600080866001600160a01b03168587604051610abf9190610e43565b60006040518083038185875af1925050503d8060008114610afc576040519150601f19603f3d011682016040523d82523d6000602084013e610b01565b606091505b5091509150610b11828286610b1c565b979650505050505050565b60608315610b2b5750816109ed565b825115610b3b5782518084602001fd5b8160405162461bcd60e51b815260040161031d9190610e5f565b600082601f830112610b6657600080fd5b8135602067ffffffffffffffff821115610b8257610b82610eef565b8160051b610b91828201610e92565b838152828101908684018388018501891015610bac57600080fd5b600093505b85841015610bcf578035835260019390930192918401918401610bb1565b50979650505050505050565b600082601f830112610bec57600080fd5b813567ffffffffffffffff811115610c0657610c06610eef565b610c19601f8201601f1916602001610e92565b818152846020838601011115610c2e57600080fd5b816020850160208301376000918101602001919091529392505050565b600080600080600060a08688031215610c6357600080fd5b8535610c6e81610f05565b94506020860135610c7e81610f05565b9350604086013567ffffffffffffffff80821115610c9b57600080fd5b610ca789838a01610b55565b94506060880135915080821115610cbd57600080fd5b610cc989838a01610b55565b93506080880135915080821115610cdf57600080fd5b50610cec88828901610bdb565b9150509295509295909350565b600080600080600060a08688031215610d1157600080fd5b8535610d1c81610f05565b94506020860135610d2c81610f05565b93506040860135925060608601359150608086013567ffffffffffffffff811115610d5657600080fd5b610cec88828901610bdb565b600060208284031215610d7457600080fd5b815180151581146109ed57600080fd5b600060208284031215610d9657600080fd5b81356001600160e01b0319811681146109ed57600080fd5b600060208284031215610dc057600080fd5b81516109ed81610f05565b60008060008060808587031215610de157600080fd5b8435610dec81610f05565b966020860135965060408601359560600135945092505050565b600060208284031215610e1857600080fd5b5051919050565b60008060408385031215610e3257600080fd5b505080516020909101519092909150565b60008251610e55818460208701610ec3565b9190910192915050565b6020815260008251806020840152610e7e816040850160208701610ec3565b601f01601f19169190910160400192915050565b604051601f8201601f1916810167ffffffffffffffff81118282101715610ebb57610ebb610eef565b604052919050565b60005b83811015610ede578181015183820152602001610ec6565b838111156107da5750506000910152565b634e487b7160e01b600052604160045260246000fd5b6001600160a01b0381168114610f1a57600080fd5b5056fea2646970667358221220310a909fe0e2597d74595cd21480d3124494e042c48c1db875468721a480d8b964736f6c63430008060033",
  "devdoc": {
    "kind": "dev",
    "methods": {
      "supportsInterface(bytes4)": {
        "details": "See {IERC165-supportsInterface}."
      }
    },
    "version": 1
  },
  "userdoc": {
    "kind": "user",
    "methods": {},
    "version": 1
  },
  "storageLayout": {
    "storage": [
      {
        "astId": 2529,
        "contract": "contracts/AaveHelper.sol:AaveHelper",
        "label": "aaveLendingPool",
        "offset": 0,
        "slot": "0",
        "type": "t_address"
      }
    ],
    "types": {
      "t_address": {
        "encoding": "inplace",
        "label": "address",
        "numberOfBytes": "20"
      }
    }
  }
}