{
  "address": "0xAbD31a8F11F3fBa11B8Bc364da9a73b922BB2d22",
  "abi": [
    {
      "inputs": [
        {
          "internalType": "address",
          "name": "_aDAI",
          "type": "address"
        }
      ],
      "stateMutability": "nonpayable",
      "type": "constructor"
    },
    {
      "inputs": [],
      "name": "DAI",
      "outputs": [
        {
          "internalType": "contract IERC20",
          "name": "",
          "type": "address"
        }
      ],
      "stateMutability": "view",
      "type": "function"
    },
    {
      "inputs": [],
      "name": "aDAI",
      "outputs": [
        {
          "internalType": "contract IERC20",
          "name": "",
          "type": "address"
        }
      ],
      "stateMutability": "view",
      "type": "function"
    },
    {
      "inputs": [],
      "name": "aaveLendingPool",
      "outputs": [
        {
          "internalType": "address",
          "name": "",
          "type": "address"
        }
      ],
      "stateMutability": "view",
      "type": "function"
    },
    {
      "inputs": [
        {
          "internalType": "contract INFTPool",
          "name": "nftPool",
          "type": "address"
        },
        {
          "internalType": "uint256",
          "name": "_ERC1155Amount",
          "type": "uint256"
        },
        {
          "internalType": "uint256",
          "name": "_maxERC20Amount",
          "type": "uint256"
        },
        {
          "internalType": "uint256",
          "name": "_deadline",
          "type": "uint256"
        }
      ],
      "name": "addLiquidityWithDAI",
      "outputs": [
        {
          "internalType": "uint256",
          "name": "ERC20Amount",
          "type": "uint256"
        },
        {
          "internalType": "uint256",
          "name": "lpMinted",
          "type": "uint256"
        }
      ],
      "stateMutability": "nonpayable",
      "type": "function"
    },
    {
      "inputs": [
        {
          "internalType": "contract INFTPool",
          "name": "nftPool",
          "type": "address"
        },
        {
          "internalType": "uint256",
          "name": "_ERC1155Amount",
          "type": "uint256"
        },
        {
          "internalType": "uint256",
          "name": "_maxERC20Amount",
          "type": "uint256"
        },
        {
          "internalType": "uint256",
          "name": "_deadline",
          "type": "uint256"
        }
      ],
      "name": "buyERC1155WithDAI",
      "outputs": [
        {
          "internalType": "uint256",
          "name": "ERC20Sold",
          "type": "uint256"
        }
      ],
      "stateMutability": "nonpayable",
      "type": "function"
    },
    {
      "inputs": [
        {
          "internalType": "address",
          "name": "",
          "type": "address"
        },
        {
          "internalType": "address",
          "name": "",
          "type": "address"
        },
        {
          "internalType": "uint256[]",
          "name": "",
          "type": "uint256[]"
        },
        {
          "internalType": "uint256[]",
          "name": "",
          "type": "uint256[]"
        },
        {
          "internalType": "bytes",
          "name": "",
          "type": "bytes"
        }
      ],
      "name": "onERC1155BatchReceived",
      "outputs": [
        {
          "internalType": "bytes4",
          "name": "",
          "type": "bytes4"
        }
      ],
      "stateMutability": "nonpayable",
      "type": "function"
    },
    {
      "inputs": [
        {
          "internalType": "address",
          "name": "",
          "type": "address"
        },
        {
          "internalType": "address",
          "name": "",
          "type": "address"
        },
        {
          "internalType": "uint256",
          "name": "",
          "type": "uint256"
        },
        {
          "internalType": "uint256",
          "name": "",
          "type": "uint256"
        },
        {
          "internalType": "bytes",
          "name": "",
          "type": "bytes"
        }
      ],
      "name": "onERC1155Received",
      "outputs": [
        {
          "internalType": "bytes4",
          "name": "",
          "type": "bytes4"
        }
      ],
      "stateMutability": "nonpayable",
      "type": "function"
    },
    {
      "inputs": [
        {
          "internalType": "contract INFTPool",
          "name": "nftPool",
          "type": "address"
        },
        {
          "internalType": "uint256",
          "name": "_ERC1155Amount",
          "type": "uint256"
        },
        {
          "internalType": "uint256",
          "name": "_minERC20",
          "type": "uint256"
        },
        {
          "internalType": "uint256",
          "name": "_deadline",
          "type": "uint256"
        }
      ],
      "name": "sellERC1155ToDAI",
      "outputs": [
        {
          "internalType": "uint256",
          "name": "ERC20Bought",
          "type": "uint256"
        }
      ],
      "stateMutability": "nonpayable",
      "type": "function"
    },
    {
      "inputs": [
        {
          "internalType": "bytes4",
          "name": "interfaceId",
          "type": "bytes4"
        }
      ],
      "name": "supportsInterface",
      "outputs": [
        {
          "internalType": "bool",
          "name": "",
          "type": "bool"
        }
      ],
      "stateMutability": "view",
      "type": "function"
    }
  ],
  "transactionHash": "0xba1fc056b6177e6a2d35a1d4e804297179d2bd11308e1c8718ba09a197a7e7b8",
  "args": [
    "0xdCf0aF9e59C002FA3AA091a46196b37530FD48a8"
  ],
  "solcInputHash": "31009d06e7f8e61b96bae24e29564f45",
  "bytecode": "0x60a06040523480156200001157600080fd5b50604051620018fe380380620018fe8339810160408190526200003491620000ef565b806001600160a01b03166080816001600160a01b031660601b81525050806001600160a01b0316637535d2466040518163ffffffff1660e01b8152600401602060405180830381600087803b1580156200008d57600080fd5b505af1158015620000a2573d6000803e3d6000fd5b505050506040513d601f19601f82011682018060405250810190620000c89190620000ef565b600080546001600160a01b0319166001600160a01b03929092169190911790555062000121565b6000602082840312156200010257600080fd5b81516001600160a01b03811681146200011a57600080fd5b9392505050565b60805160601c6117a36200015b6000396000818160c501528181610594015281816105cb0152818161098601526109bd01526117a36000f3fe608060405234801561001057600080fd5b50600436106100935760003560e01c8063bc197c8111610066578063bc197c8114610148578063e0bab4c414610180578063e9d337b81461019b578063f23a6e61146101ae578063fc924f21146101cd57600080fd5b806301ffc9a7146100985780631a38a4fb146100c05780631c4991ae146100ff57806324244f2014610127575b600080fd5b6100ab6100a636600461155b565b6101e0565b60405190151581526020015b60405180910390f35b6100e77f000000000000000000000000000000000000000000000000000000000000000081565b6040516001600160a01b0390911681526020016100b7565b61011261010d3660046115a2565b610217565b604080519283526020830191909152016100b7565b61013a6101353660046115a2565b61076c565b6040519081526020016100b7565b610167610156366004611422565b63bc197c8160e01b95945050505050565b6040516001600160e01b031990911681526020016100b7565b6100e773ff795577d9ac8bd7d90ee22b6c1703490b6512fd81565b6000546100e7906001600160a01b031681565b6101676101bc3660046114d0565b63f23a6e6160e01b95945050505050565b61013a6101db3660046115a2565b610bc6565b60006001600160e01b03198216630271189760e51b148061021157506301ffc9a760e01b6001600160e01b03198316145b92915050565b600080856001600160a01b03166318160ddd6040518163ffffffff1660e01b815260040160206040518083038186803b15801561025357600080fd5b505afa158015610267573d6000803e3d6000fd5b505050506040513d601f19601f8201168201806040525081019061028b91906115dd565b6102975783915061033a565b6040516349dcc43f60e11b8152600481018690526001600160a01b038716906393b9887e9060240160206040518083038186803b1580156102d757600080fd5b505afa1580156102eb573d6000803e3d6000fd5b505050506040513d601f19601f8201168201806040525081019061030f91906115dd565b91508382111561033a5760405162461bcd60e51b8152600401610331906116a1565b60405180910390fd5b61035a73ff795577d9ac8bd7d90ee22b6c1703490b6512fd333085610f46565b6000866001600160a01b03166373ee45086040518163ffffffff1660e01b815260040160206040518083038186803b15801561039557600080fd5b505afa1580156103a9573d6000803e3d6000fd5b505050506040513d601f19601f820116820180604052508101906103cd9190611585565b90506000876001600160a01b031663ae7eaa046040518163ffffffff1660e01b815260040160206040518083038186803b15801561040a57600080fd5b505afa15801561041e573d6000803e3d6000fd5b505050506040513d601f19601f8201168201806040525081019061044291906115dd565b604051637921219560e11b81529091506001600160a01b0383169063f242432a90610477903390309086908d90600401611636565b600060405180830381600087803b15801561049157600080fd5b505af11580156104a5573d6000803e3d6000fd5b5050600080546104d6935073ff795577d9ac8bd7d90ee22b6c1703490b6512fd92506001600160a01b031690610fb7565b6000546105029073ff795577d9ac8bd7d90ee22b6c1703490b6512fd906001600160a01b031686610fb7565b6000805460405163e8eda9df60e01b815273ff795577d9ac8bd7d90ee22b6c1703490b6512fd60048201526024810187905230604482015260648101929092526001600160a01b03169063e8eda9df90608401600060405180830381600087803b15801561056f57600080fd5b505af1158015610583573d6000803e3d6000fd5b506105be9250506001600160a01b037f0000000000000000000000000000000000000000000000000000000000000000169050896000610fb7565b6105f26001600160a01b037f0000000000000000000000000000000000000000000000000000000000000000168986610fb7565b60405163a22cb46560e01b81526001600160a01b0389811660048301526001602483015283169063a22cb46590604401600060405180830381600087803b15801561063c57600080fd5b505af1158015610650573d6000803e3d6000fd5b505060405163422f104360e01b8152600481018a905260248101879052604481018890526001600160a01b038b16925063422f104391506064016040805180830381600087803b1580156106a357600080fd5b505af11580156106b7573d6000803e3d6000fd5b505050506040513d601f19601f820116820180604052508101906106db91906115f6565b60405163a9059cbb60e01b81523360048201526024810182905291955093506001600160a01b0389169063a9059cbb90604401602060405180830381600087803b15801561072857600080fd5b505af115801561073c573d6000803e3d6000fd5b505050506040513d601f19601f820116820180604052508101906107609190611539565b50505094509492505050565b60405163b91686dd60e01b8152600481018490526000906001600160a01b0386169063b91686dd9060240160206040518083038186803b1580156107af57600080fd5b505afa1580156107c3573d6000803e3d6000fd5b505050506040513d601f19601f820116820180604052508101906107e791906115dd565b9050828111156108095760405162461bcd60e51b8152600401610331906116a1565b6040516323b872dd60e01b81523360048201523060248201526044810182905273ff795577d9ac8bd7d90ee22b6c1703490b6512fd906323b872dd90606401602060405180830381600087803b15801561086257600080fd5b505af1158015610876573d6000803e3d6000fd5b505050506040513d601f19601f8201168201806040525081019061089a9190611539565b50600080546108c89173ff795577d9ac8bd7d90ee22b6c1703490b6512fd916001600160a01b031690610fb7565b6000546108f49073ff795577d9ac8bd7d90ee22b6c1703490b6512fd906001600160a01b031683610fb7565b6000805460405163e8eda9df60e01b815273ff795577d9ac8bd7d90ee22b6c1703490b6512fd60048201526024810184905230604482015260648101929092526001600160a01b03169063e8eda9df90608401600060405180830381600087803b15801561096157600080fd5b505af1158015610975573d6000803e3d6000fd5b506109b09250506001600160a01b037f0000000000000000000000000000000000000000000000000000000000000000169050866000610fb7565b6109e46001600160a01b037f0000000000000000000000000000000000000000000000000000000000000000168683610fb7565b604051634a370ba560e01b81526004810184905260248101859052604481018390526001600160a01b03861690634a370ba590606401602060405180830381600087803b158015610a3457600080fd5b505af1158015610a48573d6000803e3d6000fd5b505050506040513d601f19601f82011682018060405250810190610a6c91906115dd565b506000856001600160a01b03166373ee45086040518163ffffffff1660e01b815260040160206040518083038186803b158015610aa857600080fd5b505afa158015610abc573d6000803e3d6000fd5b505050506040513d601f19601f82011682018060405250810190610ae09190611585565b90506000866001600160a01b031663ae7eaa046040518163ffffffff1660e01b815260040160206040518083038186803b158015610b1d57600080fd5b505afa158015610b31573d6000803e3d6000fd5b505050506040513d601f19601f82011682018060405250810190610b5591906115dd565b604051637921219560e11b81529091506001600160a01b0383169063f242432a90610b8a903090339086908c90600401611636565b600060405180830381600087803b158015610ba457600080fd5b505af1158015610bb8573d6000803e3d6000fd5b505050505050949350505050565b604051636cd44b6560e01b8152600481018490526000906001600160a01b03861690636cd44b659060240160206040518083038186803b158015610c0957600080fd5b505afa158015610c1d573d6000803e3d6000fd5b505050506040513d601f19601f82011682018060405250810190610c4191906115dd565b905082811015610c635760405162461bcd60e51b8152600401610331906116a1565b6000856001600160a01b03166373ee45086040518163ffffffff1660e01b815260040160206040518083038186803b158015610c9e57600080fd5b505afa158015610cb2573d6000803e3d6000fd5b505050506040513d601f19601f82011682018060405250810190610cd69190611585565b90506000866001600160a01b031663ae7eaa046040518163ffffffff1660e01b815260040160206040518083038186803b158015610d1357600080fd5b505afa158015610d27573d6000803e3d6000fd5b505050506040513d601f19601f82011682018060405250810190610d4b91906115dd565b604051637921219560e11b81529091506001600160a01b0383169063f242432a90610d80903390309086908c90600401611636565b600060405180830381600087803b158015610d9a57600080fd5b505af1158015610dae573d6000803e3d6000fd5b505060405163a22cb46560e01b81526001600160a01b038a81166004830152600160248301528516925063a22cb4659150604401600060405180830381600087803b158015610dfc57600080fd5b505af1158015610e10573d6000803e3d6000fd5b5050604051630c74e63360e01b81526004810189905260248101889052604481018790526001600160a01b038a169250630c74e6339150606401602060405180830381600087803b158015610e6457600080fd5b505af1158015610e78573d6000803e3d6000fd5b505050506040513d601f19601f82011682018060405250810190610e9c91906115dd565b50600054604051631a4ca37b60e21b815273ff795577d9ac8bd7d90ee22b6c1703490b6512fd6004820152602481018590523360448201526001600160a01b03909116906369328dec90606401602060405180830381600087803b158015610f0357600080fd5b505af1158015610f17573d6000803e3d6000fd5b505050506040513d601f19601f82011682018060405250810190610f3b91906115dd565b505050949350505050565b6040516001600160a01b0380851660248301528316604482015260648101829052610fb19085906323b872dd60e01b906084015b60408051601f198184030181529190526020810180516001600160e01b03166001600160e01b0319909316929092179091526110e0565b50505050565b8015806110405750604051636eb1769f60e11b81523060048201526001600160a01b03838116602483015284169063dd62ed3e9060440160206040518083038186803b15801561100657600080fd5b505afa15801561101a573d6000803e3d6000fd5b505050506040513d601f19601f8201168201806040525081019061103e91906115dd565b155b6110ab5760405162461bcd60e51b815260206004820152603660248201527f5361666545524332303a20617070726f76652066726f6d206e6f6e2d7a65726f60448201527520746f206e6f6e2d7a65726f20616c6c6f77616e636560501b6064820152608401610331565b6040516001600160a01b0383166024820152604481018290526110db90849063095ea7b360e01b90606401610f7a565b505050565b6000611135826040518060400160405280602081526020017f5361666545524332303a206c6f772d6c6576656c2063616c6c206661696c6564815250856001600160a01b03166111b29092919063ffffffff16565b8051909150156110db57808060200190518101906111539190611539565b6110db5760405162461bcd60e51b815260206004820152602a60248201527f5361666545524332303a204552433230206f7065726174696f6e20646964206e6044820152691bdd081cdd58d8d9595960b21b6064820152608401610331565b60606111c184846000856111cb565b90505b9392505050565b60608247101561122c5760405162461bcd60e51b815260206004820152602660248201527f416464726573733a20696e73756666696369656e742062616c616e636520666f6044820152651c8818d85b1b60d21b6064820152608401610331565b843b61127a5760405162461bcd60e51b815260206004820152601d60248201527f416464726573733a2063616c6c20746f206e6f6e2d636f6e74726163740000006044820152606401610331565b600080866001600160a01b03168587604051611296919061161a565b60006040518083038185875af1925050503d80600081146112d3576040519150601f19603f3d011682016040523d82523d6000602084013e6112d8565b606091505b50915091506112e88282866112f3565b979650505050505050565b606083156113025750816111c4565b8251156113125782518084602001fd5b8160405162461bcd60e51b8152600401610331919061166e565b600082601f83011261133d57600080fd5b8135602067ffffffffffffffff8211156113595761135961173f565b8160051b6113688282016116e2565b83815282810190868401838801850189101561138357600080fd5b600093505b858410156113a6578035835260019390930192918401918401611388565b50979650505050505050565b600082601f8301126113c357600080fd5b813567ffffffffffffffff8111156113dd576113dd61173f565b6113f0601f8201601f19166020016116e2565b81815284602083860101111561140557600080fd5b816020850160208301376000918101602001919091529392505050565b600080600080600060a0868803121561143a57600080fd5b853561144581611755565b9450602086013561145581611755565b9350604086013567ffffffffffffffff8082111561147257600080fd5b61147e89838a0161132c565b9450606088013591508082111561149457600080fd5b6114a089838a0161132c565b935060808801359150808211156114b657600080fd5b506114c3888289016113b2565b9150509295509295909350565b600080600080600060a086880312156114e857600080fd5b85356114f381611755565b9450602086013561150381611755565b93506040860135925060608601359150608086013567ffffffffffffffff81111561152d57600080fd5b6114c3888289016113b2565b60006020828403121561154b57600080fd5b815180151581146111c457600080fd5b60006020828403121561156d57600080fd5b81356001600160e01b0319811681146111c457600080fd5b60006020828403121561159757600080fd5b81516111c481611755565b600080600080608085870312156115b857600080fd5b84356115c381611755565b966020860135965060408601359560600135945092505050565b6000602082840312156115ef57600080fd5b5051919050565b6000806040838503121561160957600080fd5b505080516020909101519092909150565b6000825161162c818460208701611713565b9190910192915050565b6001600160a01b0394851681529290931660208301526040820152606081019190915260a06080820181905260009082015260c00190565b602081526000825180602084015261168d816040850160208701611713565b601f01601f19169190910160400192915050565b60208082526021908201527f48656c7065723a20496e73756666696369656e7420455243323020416d6f756e6040820152601d60fa1b606082015260800190565b604051601f8201601f1916810167ffffffffffffffff8111828210171561170b5761170b61173f565b604052919050565b60005b8381101561172e578181015183820152602001611716565b83811115610fb15750506000910152565b634e487b7160e01b600052604160045260246000fd5b6001600160a01b038116811461176a57600080fd5b5056fea2646970667358221220a0fe56214ad77bf2b84cc86e46b96628851c512b2351f00cd983b160f297139364736f6c63430008060033",
  "devdoc": {
    "kind": "dev",
    "methods": {
      "supportsInterface(bytes4)": {
        "details": "See {IERC165-supportsInterface}."
      }
    },
    "version": 1
  },
  "userdoc": {
    "kind": "user",
    "methods": {},
    "version": 1
  },
  "storageLayout": {
    "storage": [
      {
        "astId": 2540,
        "contract": "contracts/AaveHelper.sol:AaveHelper",
        "label": "aaveLendingPool",
        "offset": 0,
        "slot": "0",
        "type": "t_address"
      }
    ],
    "types": {
      "t_address": {
        "encoding": "inplace",
        "label": "address",
        "numberOfBytes": "20"
      }
    }
  }
}