{
  "address": "0xF0C686bd8fd842247160A5567eeF2ED9F2F9db8b",
  "abi": [
    {
      "inputs": [
        {
          "internalType": "address",
          "name": "_keeperRegistryAddress",
          "type": "address"
        }
      ],
      "stateMutability": "nonpayable",
      "type": "constructor"
    },
    {
      "inputs": [
        {
          "internalType": "bytes",
          "name": "",
          "type": "bytes"
        }
      ],
      "name": "checkUpkeep",
      "outputs": [
        {
          "internalType": "bool",
          "name": "upkeepNeeded",
          "type": "bool"
        },
        {
          "internalType": "bytes",
          "name": "performData",
          "type": "bytes"
        }
      ],
      "stateMutability": "view",
      "type": "function"
    },
    {
      "inputs": [
        {
          "internalType": "address",
          "name": "",
          "type": "address"
        },
        {
          "internalType": "address",
          "name": "",
          "type": "address"
        },
        {
          "internalType": "uint256[]",
          "name": "",
          "type": "uint256[]"
        },
        {
          "internalType": "uint256[]",
          "name": "",
          "type": "uint256[]"
        },
        {
          "internalType": "bytes",
          "name": "",
          "type": "bytes"
        }
      ],
      "name": "onERC1155BatchReceived",
      "outputs": [
        {
          "internalType": "bytes4",
          "name": "",
          "type": "bytes4"
        }
      ],
      "stateMutability": "nonpayable",
      "type": "function"
    },
    {
      "inputs": [
        {
          "internalType": "address",
          "name": "",
          "type": "address"
        },
        {
          "internalType": "address",
          "name": "",
          "type": "address"
        },
        {
          "internalType": "uint256",
          "name": "",
          "type": "uint256"
        },
        {
          "internalType": "uint256",
          "name": "",
          "type": "uint256"
        },
        {
          "internalType": "bytes",
          "name": "",
          "type": "bytes"
        }
      ],
      "name": "onERC1155Received",
      "outputs": [
        {
          "internalType": "bytes4",
          "name": "",
          "type": "bytes4"
        }
      ],
      "stateMutability": "nonpayable",
      "type": "function"
    },
    {
      "inputs": [
        {
          "internalType": "uint256",
          "name": "",
          "type": "uint256"
        }
      ],
      "name": "orders",
      "outputs": [
        {
          "internalType": "address",
          "name": "user",
          "type": "address"
        },
        {
          "internalType": "contract INFTPool",
          "name": "pool",
          "type": "address"
        },
        {
          "internalType": "uint256",
          "name": "ERC1155ToBuy",
          "type": "uint256"
        },
        {
          "internalType": "uint256",
          "name": "ERC20ToSell",
          "type": "uint256"
        }
      ],
      "stateMutability": "view",
      "type": "function"
    },
    {
      "inputs": [
        {
          "internalType": "bytes",
          "name": "performData",
          "type": "bytes"
        }
      ],
      "name": "performUpkeep",
      "outputs": [],
      "stateMutability": "nonpayable",
      "type": "function"
    },
    {
      "inputs": [
        {
          "components": [
            {
              "internalType": "address",
              "name": "user",
              "type": "address"
            },
            {
              "internalType": "contract INFTPool",
              "name": "pool",
              "type": "address"
            },
            {
              "internalType": "uint256",
              "name": "ERC1155ToBuy",
              "type": "uint256"
            },
            {
              "internalType": "uint256",
              "name": "ERC20ToSell",
              "type": "uint256"
            }
          ],
          "internalType": "struct LimitOrder.Order",
          "name": "_order",
          "type": "tuple"
        }
      ],
      "name": "placeOrder",
      "outputs": [],
      "stateMutability": "nonpayable",
      "type": "function"
    },
    {
      "inputs": [
        {
          "internalType": "bytes4",
          "name": "interfaceId",
          "type": "bytes4"
        }
      ],
      "name": "supportsInterface",
      "outputs": [
        {
          "internalType": "bool",
          "name": "",
          "type": "bool"
        }
      ],
      "stateMutability": "view",
      "type": "function"
    }
  ],
  "transactionHash": "0xd804a338d6992a41d21f488e9549b326e82b8bd87922e87c16da1a620ad15489",
  "args": [
    "0x4Cb093f226983713164A62138C3F718A5b595F73"
  ],
  "solcInputHash": "489814fe4ec31f8783f1c1d13618aa2d",
  "bytecode": "0x608060405234801561001057600080fd5b5060405161154f38038061154f83398101604081905261002f91610054565b600080546001600160a01b0319166001600160a01b0392909216919091179055610084565b60006020828403121561006657600080fd5b81516001600160a01b038116811461007d57600080fd5b9392505050565b6114bc806100936000396000f3fe608060405234801561001057600080fd5b506004361061007d5760003560e01c8063714843d51161005b578063714843d5146100e0578063a85c38ef146100f3578063bc197c8114610131578063f23a6e611461016957600080fd5b806301ffc9a7146100825780634585e33b146100aa5780636e04ff0d146100bf575b600080fd5b610095610090366004611151565b610188565b60405190151581526020015b60405180910390f35b6100bd6100b836600461117b565b6101bf565b005b6100d26100cd36600461117b565b61025e565b6040516100a19291906112fd565b6100bd6100ee366004611227565b6104e7565b61010661010136600461123f565b610670565b604080516001600160a01b0395861681529490931660208501529183015260608201526080016100a1565b61015061013f366004610fdb565b63bc197c8160e01b95945050505050565b6040516001600160e01b031990911681526020016100a1565b610150610177366004611089565b63f23a6e6160e01b95945050505050565b60006001600160e01b03198216630271189760e51b14806101b957506301ffc9a760e01b6001600160e01b03198316145b92915050565b6000546001600160a01b031633146102085760405162461bcd60e51b815260206004820152600760248201526610a5b2b2b832b960c91b60448201526064015b60405180910390fd5b6060610216828401846110f2565b905060005b815181101561025857610246828281518110610239576102396113e6565b60200260200101516106b6565b806102508161139f565b91505061021b565b50505050565b6000606060008060018054905067ffffffffffffffff811115610283576102836113fc565b6040519080825280602002602001820160405280156102ac578160200160208202803683370190505b50905060005b6001548110156103fc576000600182815481106102d1576102d16113e6565b60009182526020909120600160049092020181015481546001600160a01b039091169163b91686dd918590811061030a5761030a6113e6565b9060005260206000209060040201600201546040518263ffffffff1660e01b815260040161033a91815260200190565b60206040518083038186803b15801561035257600080fd5b505afa158015610366573d6000803e3d6000fd5b505050506040513d601f19601f8201168201806040525081019061038a9190611258565b905080600183815481106103a0576103a06113e6565b906000526020600020906004020160030154106103e95760018383815181106103cb576103cb6113e6565b91151560209283029190910190910152836103e58161139f565b9450505b50806103f48161139f565b9150506102b2565b5081156104de576001935060008267ffffffffffffffff811115610422576104226113fc565b60405190808252806020026020018201604052801561044b578160200160208202803683370190505b5090506000805b6001548110156104b85783818151811061046e5761046e6113e6565b6020026020010151156104a6578083836104878161139f565b945081518110610499576104996113e6565b6020026020010181815250505b806104b08161139f565b915050610452565b50816040516020016104ca91906112b9565b604051602081830303815290604052945050505b50509250929050565b60006104f9604083016020840161120a565b6001600160a01b0316141561053f5760405162461bcd60e51b815260206004820152600c60248201526b125b9d985b1a5908141bdbdb60a21b60448201526064016101ff565b6040810135158015906105555750606081013515155b6105935760405162461bcd60e51b815260206004820152600f60248201526e496e76616c696420416d6f756e747360881b60448201526064016101ff565b60006105a5604083016020840161120a565b6001600160a01b0316637a80760e6040518163ffffffff1660e01b815260040160206040518083038186803b1580156105dd57600080fd5b505afa1580156105f1573d6000803e3d6000fd5b505050506040513d601f19601f8201168201806040525081019061061591906111ed565b90506106306001600160a01b03821633306060860135610ad5565b60018054808201825560009190915282906004027fb10e2d527612073b26eecdfd717e6a320cf44b4afac2b0732d9fcbe2b7fa0cf6016102588282611412565b6001818154811061068057600080fd5b600091825260209091206004909102018054600182015460028301546003909301546001600160a01b0392831694509116919084565b6000600182815481106106cb576106cb6113e6565b6000918252602080832060408051608081018252600494850290920180546001600160a01b03908116845260018201541683850181905260028201548484015260039091015460608401528151633d403b0760e11b8152915192965093637a80760e93828201939092909190829003018186803b15801561074b57600080fd5b505afa15801561075f573d6000803e3d6000fd5b505050506040513d601f19601f8201168201806040525081019061078391906111ed565b90506107ab82602001518360600151836001600160a01b0316610b409092919063ffffffff16565b602082015160608301516040808501519051634a370ba560e01b8152600481019290925260248201524260448201526000916001600160a01b031690634a370ba590606401602060405180830381600087803b15801561080a57600080fd5b505af115801561081e573d6000803e3d6000fd5b505050506040513d601f19601f820116820180604052508101906108429190611258565b9050600083602001516001600160a01b03166373ee45086040518163ffffffff1660e01b815260040160206040518083038186803b15801561088357600080fd5b505afa158015610897573d6000803e3d6000fd5b505050506040513d601f19601f820116820180604052508101906108bb91906111ed565b9050806001600160a01b031663f242432a30866000015187602001516001600160a01b031663ae7eaa046040518163ffffffff1660e01b815260040160206040518083038186803b15801561090f57600080fd5b505afa158015610923573d6000803e3d6000fd5b505050506040513d601f19601f820116820180604052508101906109479190611258565b6040808a015190516001600160e01b031960e087901b1681526001600160a01b0394851660048201529390921660248401526044830152606482015260a06084820152600060a482015260c401600060405180830381600087803b1580156109ae57600080fd5b505af11580156109c2573d6000803e3d6000fd5b5050505083606001518210156109fb576109fb84600001518386606001516109ea919061135c565b6001600160a01b0386169190610c69565b60018054610a076113e6565b906000526020600020906004020160018681548110610a2857610a286113e6565b60009182526020909120825460049092020180546001600160a01b03199081166001600160a01b039384161782556001808501548184018054909316941693909317905560028084015490820155600392830154920191909155805480610a9157610a916113d0565b60008281526020812060046000199093019283020180546001600160a01b031990811682556001820180549091169055600281018290556003015590555050505050565b6040516001600160a01b03808516602483015283166044820152606481018290526102589085906323b872dd60e01b906084015b60408051601f198184030181529190526020810180516001600160e01b03166001600160e01b031990931692909217909152610c99565b801580610bc95750604051636eb1769f60e11b81523060048201526001600160a01b03838116602483015284169063dd62ed3e9060440160206040518083038186803b158015610b8f57600080fd5b505afa158015610ba3573d6000803e3d6000fd5b505050506040513d601f19601f82011682018060405250810190610bc79190611258565b155b610c345760405162461bcd60e51b815260206004820152603660248201527f5361666545524332303a20617070726f76652066726f6d206e6f6e2d7a65726f60448201527520746f206e6f6e2d7a65726f20616c6c6f77616e636560501b60648201526084016101ff565b6040516001600160a01b038316602482015260448101829052610c6490849063095ea7b360e01b90606401610b09565b505050565b6040516001600160a01b038316602482015260448101829052610c6490849063a9059cbb60e01b90606401610b09565b6000610cee826040518060400160405280602081526020017f5361666545524332303a206c6f772d6c6576656c2063616c6c206661696c6564815250856001600160a01b0316610d6b9092919063ffffffff16565b805190915015610c645780806020019051810190610d0c919061112f565b610c645760405162461bcd60e51b815260206004820152602a60248201527f5361666545524332303a204552433230206f7065726174696f6e20646964206e6044820152691bdd081cdd58d8d9595960b21b60648201526084016101ff565b6060610d7a8484600085610d84565b90505b9392505050565b606082471015610de55760405162461bcd60e51b815260206004820152602660248201527f416464726573733a20696e73756666696369656e742062616c616e636520666f6044820152651c8818d85b1b60d21b60648201526084016101ff565b843b610e335760405162461bcd60e51b815260206004820152601d60248201527f416464726573733a2063616c6c20746f206e6f6e2d636f6e747261637400000060448201526064016101ff565b600080866001600160a01b03168587604051610e4f919061129d565b60006040518083038185875af1925050503d8060008114610e8c576040519150601f19603f3d011682016040523d82523d6000602084013e610e91565b606091505b5091509150610ea1828286610eac565b979650505050505050565b60608315610ebb575081610d7d565b825115610ecb5782518084602001fd5b8160405162461bcd60e51b81526004016101ff9190611318565b600082601f830112610ef657600080fd5b8135602067ffffffffffffffff821115610f1257610f126113fc565b8160051b610f2182820161132b565b838152828101908684018388018501891015610f3c57600080fd5b600093505b85841015610f5f578035835260019390930192918401918401610f41565b50979650505050505050565b600082601f830112610f7c57600080fd5b813567ffffffffffffffff811115610f9657610f966113fc565b610fa9601f8201601f191660200161132b565b818152846020838601011115610fbe57600080fd5b816020850160208301376000918101602001919091529392505050565b600080600080600060a08688031215610ff357600080fd5b8535610ffe8161146e565b9450602086013561100e8161146e565b9350604086013567ffffffffffffffff8082111561102b57600080fd5b61103789838a01610ee5565b9450606088013591508082111561104d57600080fd5b61105989838a01610ee5565b9350608088013591508082111561106f57600080fd5b5061107c88828901610f6b565b9150509295509295909350565b600080600080600060a086880312156110a157600080fd5b85356110ac8161146e565b945060208601356110bc8161146e565b93506040860135925060608601359150608086013567ffffffffffffffff8111156110e657600080fd5b61107c88828901610f6b565b60006020828403121561110457600080fd5b813567ffffffffffffffff81111561111b57600080fd5b61112784828501610ee5565b949350505050565b60006020828403121561114157600080fd5b81518015158114610d7d57600080fd5b60006020828403121561116357600080fd5b81356001600160e01b031981168114610d7d57600080fd5b6000806020838503121561118e57600080fd5b823567ffffffffffffffff808211156111a657600080fd5b818501915085601f8301126111ba57600080fd5b8135818111156111c957600080fd5b8660208285010111156111db57600080fd5b60209290920196919550909350505050565b6000602082840312156111ff57600080fd5b8151610d7d8161146e565b60006020828403121561121c57600080fd5b8135610d7d8161146e565b60006080828403121561123957600080fd5b50919050565b60006020828403121561125157600080fd5b5035919050565b60006020828403121561126a57600080fd5b5051919050565b60008151808452611289816020860160208601611373565b601f01601f19169290920160200192915050565b600082516112af818460208701611373565b9190910192915050565b6020808252825182820181905260009190848201906040850190845b818110156112f1578351835292840192918401916001016112d5565b50909695505050505050565b8215158152604060208201526000610d7a6040830184611271565b602081526000610d7d6020830184611271565b604051601f8201601f1916810167ffffffffffffffff81118282101715611354576113546113fc565b604052919050565b60008282101561136e5761136e6113ba565b500390565b60005b8381101561138e578181015183820152602001611376565b838111156102585750506000910152565b60006000198214156113b3576113b36113ba565b5060010190565b634e487b7160e01b600052601160045260246000fd5b634e487b7160e01b600052603160045260246000fd5b634e487b7160e01b600052603260045260246000fd5b634e487b7160e01b600052604160045260246000fd5b813561141d8161146e565b81546001600160a01b03199081166001600160a01b03928316178355600183019190602085013561144d8161146e565b83549216911617905560408201356002820155606090910135600390910155565b6001600160a01b038116811461148357600080fd5b5056fea26469706673582212201465ae7ff0cba53941251d8f8263ee4df1a6d8de9170228707bbfbbc9fb9dce664736f6c63430008060033",
  "devdoc": {
    "kind": "dev",
    "methods": {
      "performUpkeep(bytes)": {
        "details": "The input to this method should not be trusted, and the caller of the method should not even be restricted to any single registry. Anyone should be able call it, and the input should be validated, there is no guarantee that the data passed in is the performData returned from checkUpkeep. This could happen due to malicious keepers, racing keepers, or simply a state change while the performUpkeep transaction is waiting for confirmation. Always validate the data passed in.",
        "params": {
          "performData": "is the data which was passed back from the checkData simulation. If it is encoded, it can easily be decoded into other types by calling `abi.decode`. This data should not be trusted, and should be validated against the contract's current state."
        }
      },
      "supportsInterface(bytes4)": {
        "details": "See {IERC165-supportsInterface}."
      }
    },
    "version": 1
  },
  "userdoc": {
    "kind": "user",
    "methods": {
      "performUpkeep(bytes)": {
        "notice": "method that is actually executed by the keepers, via the registry. The data returned by the checkUpkeep simulation will be passed into this method to actually be executed."
      }
    },
    "version": 1
  },
  "storageLayout": {
    "storage": [
      {
        "astId": 4187,
        "contract": "contracts/periphery/LimitOrder.sol:LimitOrder",
        "label": "keeperRegistryAddress",
        "offset": 0,
        "slot": "0",
        "type": "t_address"
      },
      {
        "astId": 4191,
        "contract": "contracts/periphery/LimitOrder.sol:LimitOrder",
        "label": "orders",
        "offset": 0,
        "slot": "1",
        "type": "t_array(t_struct(Order)4185_storage)dyn_storage"
      }
    ],
    "types": {
      "t_address": {
        "encoding": "inplace",
        "label": "address",
        "numberOfBytes": "20"
      },
      "t_array(t_struct(Order)4185_storage)dyn_storage": {
        "base": "t_struct(Order)4185_storage",
        "encoding": "dynamic_array",
        "label": "struct LimitOrder.Order[]",
        "numberOfBytes": "32"
      },
      "t_contract(INFTPool)4157": {
        "encoding": "inplace",
        "label": "contract INFTPool",
        "numberOfBytes": "20"
      },
      "t_struct(Order)4185_storage": {
        "encoding": "inplace",
        "label": "struct LimitOrder.Order",
        "members": [
          {
            "astId": 4177,
            "contract": "contracts/periphery/LimitOrder.sol:LimitOrder",
            "label": "user",
            "offset": 0,
            "slot": "0",
            "type": "t_address"
          },
          {
            "astId": 4180,
            "contract": "contracts/periphery/LimitOrder.sol:LimitOrder",
            "label": "pool",
            "offset": 0,
            "slot": "1",
            "type": "t_contract(INFTPool)4157"
          },
          {
            "astId": 4182,
            "contract": "contracts/periphery/LimitOrder.sol:LimitOrder",
            "label": "ERC1155ToBuy",
            "offset": 0,
            "slot": "2",
            "type": "t_uint256"
          },
          {
            "astId": 4184,
            "contract": "contracts/periphery/LimitOrder.sol:LimitOrder",
            "label": "ERC20ToSell",
            "offset": 0,
            "slot": "3",
            "type": "t_uint256"
          }
        ],
        "numberOfBytes": "128"
      },
      "t_uint256": {
        "encoding": "inplace",
        "label": "uint256",
        "numberOfBytes": "32"
      }
    }
  }
}