{
  "address": "0x68cBb2802296856D44694668Ac281f18C86CaB6e",
  "abi": [
    {
      "inputs": [
        {
          "internalType": "contract IERC20",
          "name": "_ERC20Token",
          "type": "address"
        },
        {
          "internalType": "contract IERC1155",
          "name": "_ERC1155Token",
          "type": "address"
        },
        {
          "internalType": "uint256",
          "name": "_ERC1155ID",
          "type": "uint256"
        }
      ],
      "stateMutability": "nonpayable",
      "type": "constructor"
    },
    {
      "anonymous": false,
      "inputs": [
        {
          "indexed": true,
          "internalType": "address",
          "name": "owner",
          "type": "address"
        },
        {
          "indexed": true,
          "internalType": "address",
          "name": "spender",
          "type": "address"
        },
        {
          "indexed": false,
          "internalType": "uint256",
          "name": "value",
          "type": "uint256"
        }
      ],
      "name": "Approval",
      "type": "event"
    },
    {
      "anonymous": false,
      "inputs": [
        {
          "indexed": true,
          "internalType": "address",
          "name": "sender",
          "type": "address"
        },
        {
          "indexed": false,
          "internalType": "uint256",
          "name": "ERC1155Amount",
          "type": "uint256"
        },
        {
          "indexed": false,
          "internalType": "uint256",
          "name": "ERC20Amount",
          "type": "uint256"
        },
        {
          "indexed": false,
          "internalType": "uint256",
          "name": "lpAmount",
          "type": "uint256"
        }
      ],
      "name": "Burn",
      "type": "event"
    },
    {
      "anonymous": false,
      "inputs": [
        {
          "indexed": true,
          "internalType": "address",
          "name": "sender",
          "type": "address"
        },
        {
          "indexed": false,
          "internalType": "uint256",
          "name": "ERC1155Amount",
          "type": "uint256"
        },
        {
          "indexed": false,
          "internalType": "uint256",
          "name": "ERC20Amount",
          "type": "uint256"
        },
        {
          "indexed": false,
          "internalType": "uint256",
          "name": "lpAmount",
          "type": "uint256"
        }
      ],
      "name": "Mint",
      "type": "event"
    },
    {
      "anonymous": false,
      "inputs": [
        {
          "indexed": true,
          "internalType": "address",
          "name": "sender",
          "type": "address"
        },
        {
          "indexed": false,
          "internalType": "uint256",
          "name": "ERC1155AmountIn",
          "type": "uint256"
        },
        {
          "indexed": false,
          "internalType": "uint256",
          "name": "ERC20AmountOut",
          "type": "uint256"
        }
      ],
      "name": "SwapERC1155ToERC20",
      "type": "event"
    },
    {
      "anonymous": false,
      "inputs": [
        {
          "indexed": true,
          "internalType": "address",
          "name": "sender",
          "type": "address"
        },
        {
          "indexed": false,
          "internalType": "uint256",
          "name": "ERC20AmountIn",
          "type": "uint256"
        },
        {
          "indexed": false,
          "internalType": "uint256",
          "name": "ERC1155AmountOut",
          "type": "uint256"
        }
      ],
      "name": "SwapERC20ToERC1155",
      "type": "event"
    },
    {
      "anonymous": false,
      "inputs": [
        {
          "indexed": true,
          "internalType": "address",
          "name": "from",
          "type": "address"
        },
        {
          "indexed": true,
          "internalType": "address",
          "name": "to",
          "type": "address"
        },
        {
          "indexed": false,
          "internalType": "uint256",
          "name": "value",
          "type": "uint256"
        }
      ],
      "name": "Transfer",
      "type": "event"
    },
    {
      "inputs": [],
      "name": "DOMAIN_SEPARATOR",
      "outputs": [
        {
          "internalType": "bytes32",
          "name": "",
          "type": "bytes32"
        }
      ],
      "stateMutability": "view",
      "type": "function"
    },
    {
      "inputs": [],
      "name": "ERC1155ID",
      "outputs": [
        {
          "internalType": "uint256",
          "name": "",
          "type": "uint256"
        }
      ],
      "stateMutability": "view",
      "type": "function"
    },
    {
      "inputs": [],
      "name": "ERC1155Token",
      "outputs": [
        {
          "internalType": "contract IERC1155",
          "name": "",
          "type": "address"
        }
      ],
      "stateMutability": "view",
      "type": "function"
    },
    {
      "inputs": [],
      "name": "ERC20Token",
      "outputs": [
        {
          "internalType": "contract IERC20",
          "name": "",
          "type": "address"
        }
      ],
      "stateMutability": "view",
      "type": "function"
    },
    {
      "inputs": [],
      "name": "FEE_MULTIPLIER",
      "outputs": [
        {
          "internalType": "uint256",
          "name": "",
          "type": "uint256"
        }
      ],
      "stateMutability": "view",
      "type": "function"
    },
    {
      "inputs": [],
      "name": "PERMIT_TYPEHASH",
      "outputs": [
        {
          "internalType": "bytes32",
          "name": "",
          "type": "bytes32"
        }
      ],
      "stateMutability": "view",
      "type": "function"
    },
    {
      "inputs": [
        {
          "internalType": "uint256",
          "name": "_ERC1155Amount",
          "type": "uint256"
        },
        {
          "internalType": "uint256",
          "name": "_maxERC20Amount",
          "type": "uint256"
        },
        {
          "internalType": "uint256",
          "name": "_deadline",
          "type": "uint256"
        }
      ],
      "name": "addLiquidity",
      "outputs": [
        {
          "internalType": "uint256",
          "name": "ERC20Amount",
          "type": "uint256"
        },
        {
          "internalType": "uint256",
          "name": "lpMinted",
          "type": "uint256"
        }
      ],
      "stateMutability": "nonpayable",
      "type": "function"
    },
    {
      "inputs": [
        {
          "internalType": "address",
          "name": "owner",
          "type": "address"
        },
        {
          "internalType": "address",
          "name": "spender",
          "type": "address"
        }
      ],
      "name": "allowance",
      "outputs": [
        {
          "internalType": "uint256",
          "name": "",
          "type": "uint256"
        }
      ],
      "stateMutability": "view",
      "type": "function"
    },
    {
      "inputs": [
        {
          "internalType": "address",
          "name": "spender",
          "type": "address"
        },
        {
          "internalType": "uint256",
          "name": "amount",
          "type": "uint256"
        }
      ],
      "name": "approve",
      "outputs": [
        {
          "internalType": "bool",
          "name": "",
          "type": "bool"
        }
      ],
      "stateMutability": "nonpayable",
      "type": "function"
    },
    {
      "inputs": [
        {
          "internalType": "address",
          "name": "account",
          "type": "address"
        }
      ],
      "name": "balanceOf",
      "outputs": [
        {
          "internalType": "uint256",
          "name": "",
          "type": "uint256"
        }
      ],
      "stateMutability": "view",
      "type": "function"
    },
    {
      "inputs": [
        {
          "internalType": "uint256",
          "name": "outputAmount",
          "type": "uint256"
        },
        {
          "internalType": "uint256",
          "name": "inputReserve",
          "type": "uint256"
        },
        {
          "internalType": "uint256",
          "name": "outputReserve",
          "type": "uint256"
        }
      ],
      "name": "calculateInputAmount_InputFee",
      "outputs": [
        {
          "internalType": "uint256",
          "name": "price",
          "type": "uint256"
        }
      ],
      "stateMutability": "pure",
      "type": "function"
    },
    {
      "inputs": [
        {
          "internalType": "uint256",
          "name": "inputAmount",
          "type": "uint256"
        },
        {
          "internalType": "uint256",
          "name": "inputReserve",
          "type": "uint256"
        },
        {
          "internalType": "uint256",
          "name": "outputReserve",
          "type": "uint256"
        }
      ],
      "name": "calculateOutputAmount_OutputFee",
      "outputs": [
        {
          "internalType": "uint256",
          "name": "",
          "type": "uint256"
        }
      ],
      "stateMutability": "pure",
      "type": "function"
    },
    {
      "inputs": [],
      "name": "decimals",
      "outputs": [
        {
          "internalType": "uint8",
          "name": "",
          "type": "uint8"
        }
      ],
      "stateMutability": "view",
      "type": "function"
    },
    {
      "inputs": [
        {
          "internalType": "address",
          "name": "spender",
          "type": "address"
        },
        {
          "internalType": "uint256",
          "name": "subtractedValue",
          "type": "uint256"
        }
      ],
      "name": "decreaseAllowance",
      "outputs": [
        {
          "internalType": "bool",
          "name": "",
          "type": "bool"
        }
      ],
      "stateMutability": "nonpayable",
      "type": "function"
    },
    {
      "inputs": [
        {
          "internalType": "uint256",
          "name": "_ERC1155Amount",
          "type": "uint256"
        }
      ],
      "name": "getAddLiquidityAmount",
      "outputs": [
        {
          "internalType": "uint256",
          "name": "ERC20Amount",
          "type": "uint256"
        }
      ],
      "stateMutability": "view",
      "type": "function"
    },
    {
      "inputs": [
        {
          "internalType": "uint256",
          "name": "_ERC1155Amount",
          "type": "uint256"
        }
      ],
      "name": "getPriceERC1155toERC20",
      "outputs": [
        {
          "internalType": "uint256",
          "name": "ERC20Bought",
          "type": "uint256"
        }
      ],
      "stateMutability": "view",
      "type": "function"
    },
    {
      "inputs": [
        {
          "internalType": "uint256",
          "name": "_ERC1155Amount",
          "type": "uint256"
        }
      ],
      "name": "getPriceERC20toERC1155Exact",
      "outputs": [
        {
          "internalType": "uint256",
          "name": "ERC20Required",
          "type": "uint256"
        }
      ],
      "stateMutability": "view",
      "type": "function"
    },
    {
      "inputs": [
        {
          "internalType": "uint256",
          "name": "_lpAmount",
          "type": "uint256"
        }
      ],
      "name": "getRemoveLiquidityAmounts",
      "outputs": [
        {
          "internalType": "uint256",
          "name": "ERC1155Amount",
          "type": "uint256"
        },
        {
          "internalType": "uint256",
          "name": "ERC20Amount",
          "type": "uint256"
        }
      ],
      "stateMutability": "view",
      "type": "function"
    },
    {
      "inputs": [],
      "name": "getReserves",
      "outputs": [
        {
          "internalType": "uint256",
          "name": "ERC1155Reserve",
          "type": "uint256"
        },
        {
          "internalType": "uint256",
          "name": "ERC20Reserve",
          "type": "uint256"
        }
      ],
      "stateMutability": "view",
      "type": "function"
    },
    {
      "inputs": [
        {
          "internalType": "address",
          "name": "spender",
          "type": "address"
        },
        {
          "internalType": "uint256",
          "name": "addedValue",
          "type": "uint256"
        }
      ],
      "name": "increaseAllowance",
      "outputs": [
        {
          "internalType": "bool",
          "name": "",
          "type": "bool"
        }
      ],
      "stateMutability": "nonpayable",
      "type": "function"
    },
    {
      "inputs": [],
      "name": "name",
      "outputs": [
        {
          "internalType": "string",
          "name": "",
          "type": "string"
        }
      ],
      "stateMutability": "view",
      "type": "function"
    },
    {
      "inputs": [
        {
          "internalType": "address",
          "name": "",
          "type": "address"
        }
      ],
      "name": "nonces",
      "outputs": [
        {
          "internalType": "uint256",
          "name": "",
          "type": "uint256"
        }
      ],
      "stateMutability": "view",
      "type": "function"
    },
    {
      "inputs": [
        {
          "internalType": "address",
          "name": "",
          "type": "address"
        },
        {
          "internalType": "address",
          "name": "",
          "type": "address"
        },
        {
          "internalType": "uint256[]",
          "name": "",
          "type": "uint256[]"
        },
        {
          "internalType": "uint256[]",
          "name": "",
          "type": "uint256[]"
        },
        {
          "internalType": "bytes",
          "name": "",
          "type": "bytes"
        }
      ],
      "name": "onERC1155BatchReceived",
      "outputs": [
        {
          "internalType": "bytes4",
          "name": "",
          "type": "bytes4"
        }
      ],
      "stateMutability": "nonpayable",
      "type": "function"
    },
    {
      "inputs": [
        {
          "internalType": "address",
          "name": "",
          "type": "address"
        },
        {
          "internalType": "address",
          "name": "",
          "type": "address"
        },
        {
          "internalType": "uint256",
          "name": "",
          "type": "uint256"
        },
        {
          "internalType": "uint256",
          "name": "",
          "type": "uint256"
        },
        {
          "internalType": "bytes",
          "name": "",
          "type": "bytes"
        }
      ],
      "name": "onERC1155Received",
      "outputs": [
        {
          "internalType": "bytes4",
          "name": "",
          "type": "bytes4"
        }
      ],
      "stateMutability": "nonpayable",
      "type": "function"
    },
    {
      "inputs": [
        {
          "internalType": "address",
          "name": "owner",
          "type": "address"
        },
        {
          "internalType": "address",
          "name": "spender",
          "type": "address"
        },
        {
          "internalType": "uint256",
          "name": "value",
          "type": "uint256"
        },
        {
          "internalType": "uint256",
          "name": "deadline",
          "type": "uint256"
        },
        {
          "internalType": "uint8",
          "name": "v",
          "type": "uint8"
        },
        {
          "internalType": "bytes32",
          "name": "r",
          "type": "bytes32"
        },
        {
          "internalType": "bytes32",
          "name": "s",
          "type": "bytes32"
        }
      ],
      "name": "permit",
      "outputs": [],
      "stateMutability": "nonpayable",
      "type": "function"
    },
    {
      "inputs": [
        {
          "internalType": "uint256",
          "name": "_lpAmount",
          "type": "uint256"
        },
        {
          "internalType": "uint256",
          "name": "_minERC1155",
          "type": "uint256"
        },
        {
          "internalType": "uint256",
          "name": "_minERC20",
          "type": "uint256"
        },
        {
          "internalType": "uint256",
          "name": "_deadline",
          "type": "uint256"
        }
      ],
      "name": "removeLiquidity",
      "outputs": [
        {
          "internalType": "uint256",
          "name": "ERC1155Amount",
          "type": "uint256"
        },
        {
          "internalType": "uint256",
          "name": "ERC20Amount",
          "type": "uint256"
        }
      ],
      "stateMutability": "nonpayable",
      "type": "function"
    },
    {
      "inputs": [
        {
          "internalType": "bytes4",
          "name": "interfaceId",
          "type": "bytes4"
        }
      ],
      "name": "supportsInterface",
      "outputs": [
        {
          "internalType": "bool",
          "name": "",
          "type": "bool"
        }
      ],
      "stateMutability": "view",
      "type": "function"
    },
    {
      "inputs": [
        {
          "internalType": "uint256",
          "name": "_maxERC20",
          "type": "uint256"
        },
        {
          "internalType": "uint256",
          "name": "_ERC1155Amount",
          "type": "uint256"
        },
        {
          "internalType": "uint256",
          "name": "_deadline",
          "type": "uint256"
        }
      ],
      "name": "swapERC20toERC1155Exact",
      "outputs": [
        {
          "internalType": "uint256",
          "name": "ERC20Sold",
          "type": "uint256"
        }
      ],
      "stateMutability": "nonpayable",
      "type": "function"
    },
    {
      "inputs": [
        {
          "internalType": "uint256",
          "name": "_ERC1155Amount",
          "type": "uint256"
        },
        {
          "internalType": "uint256",
          "name": "_minERC20",
          "type": "uint256"
        },
        {
          "internalType": "uint256",
          "name": "_deadline",
          "type": "uint256"
        }
      ],
      "name": "swapExactERC1155ToERC20",
      "outputs": [
        {
          "internalType": "uint256",
          "name": "ERC20Bought",
          "type": "uint256"
        }
      ],
      "stateMutability": "nonpayable",
      "type": "function"
    },
    {
      "inputs": [],
      "name": "symbol",
      "outputs": [
        {
          "internalType": "string",
          "name": "",
          "type": "string"
        }
      ],
      "stateMutability": "view",
      "type": "function"
    },
    {
      "inputs": [],
      "name": "totalSupply",
      "outputs": [
        {
          "internalType": "uint256",
          "name": "",
          "type": "uint256"
        }
      ],
      "stateMutability": "view",
      "type": "function"
    },
    {
      "inputs": [
        {
          "internalType": "address",
          "name": "recipient",
          "type": "address"
        },
        {
          "internalType": "uint256",
          "name": "amount",
          "type": "uint256"
        }
      ],
      "name": "transfer",
      "outputs": [
        {
          "internalType": "bool",
          "name": "",
          "type": "bool"
        }
      ],
      "stateMutability": "nonpayable",
      "type": "function"
    },
    {
      "inputs": [
        {
          "internalType": "address",
          "name": "sender",
          "type": "address"
        },
        {
          "internalType": "address",
          "name": "recipient",
          "type": "address"
        },
        {
          "internalType": "uint256",
          "name": "amount",
          "type": "uint256"
        }
      ],
      "name": "transferFrom",
      "outputs": [
        {
          "internalType": "bool",
          "name": "",
          "type": "bool"
        }
      ],
      "stateMutability": "nonpayable",
      "type": "function"
    }
  ],
  "transactionHash": "0x98eccc58116a2e53f21cefa3a0b2a9ca5f2eba59de64dc67303891b87913fea4",
  "args": [
    "0xB7ED788188bF83d44c7CA9e48E12216991a5045b",
    "0x81fD3646f5b422C92Ec39Cfb1359df40E78624Da",
    10
  ],
  "solcInputHash": "42ced48a8879e94383e599aa4efb65ef",
  "bytecode": "0x6101006040523480156200001257600080fd5b50604051620027ed380380620027ed8339810160408190526200003591620002bb565b604080518082018252600a81526904e4654506f6f6c204c560b41b60208083019182528351808501909452600584526404e46544c560dc1b908401528151919291620000849160039162000215565b5080516200009a90600490602084019062000215565b5050506001600160a01b03831615801590620000be57506001600160a01b03821615155b620000fe5760405162461bcd60e51b815260206004820152600c60248201526b4e756c6c204164647265737360a01b604482015260640160405180910390fd5b6001600160601b0319606084811b821660805283901b1660a05260c08190526040805180820182526007815266139195141bdbdb60ca1b6020918201528151808301835260018152603160f81b9082015290514691620001ef917f8b73c3c69bb8fe3d512ecc4cf759cc79239f7b179b0ffacaa9a75d522b39400f917f223c272cf0fc1bb201d22b544a3904d41fb74922ba29c6aa71886ba2c5d657fb917fc89efdaa54c0f20c7adf612882df0950f5a951637e0307cdcb4c672f298b8bc69186913091019485526020850193909352604084019190915260608301526001600160a01b0316608082015260a00190565b60408051601f19818403018152919052805160209091012060e052506200035992505050565b828054620002239062000303565b90600052602060002090601f01602090048101928262000247576000855562000292565b82601f106200026257805160ff191683800117855562000292565b8280016001018555821562000292579182015b828111156200029257825182559160200191906001019062000275565b50620002a0929150620002a4565b5090565b5b80821115620002a05760008155600101620002a5565b600080600060608486031215620002d157600080fd5b8351620002de8162000340565b6020850151909350620002f18162000340565b80925050604084015190509250925092565b600181811c908216806200031857607f821691505b602082108114156200033a57634e487b7160e01b600052602260045260246000fd5b50919050565b6001600160a01b03811681146200035657600080fd5b50565b60805160601c60a05160601c60c05160e0516123cf6200041e600039600081816102e401526110b901526000818161045a015281816106530152818161087401528181610aa801528181610c3101528181610e940152611499015260008181610380015281816106860152818161084301528181610a7701528181610c0001528181610e6301526114680152600081816103bf01528181610717015281816108dd01528181610b1101528181610c9a01528181610e24015261150201526123cf6000f3fe608060405234801561001057600080fd5b50600436106101fb5760003560e01c80637a80760e1161011a578063b591b13c116100ad578063dd62ed3e1161007c578063dd62ed3e146104e5578063ee6411391461051e578063f23a6e6114610531578063f2bbe23714610550578063f88bf15a1461056357600080fd5b8063b591b13c1461047c578063b91686dd14610485578063bc197c8114610498578063d505accf146104d057600080fd5b806395d89b41116100e957806395d89b4114610427578063a457c2d71461042f578063a9059cbb14610442578063ae7eaa041461045557600080fd5b80637a80760e146103ba5780637ecebe00146103e15780639077c7391461040157806393b9887e1461041457600080fd5b8063313ce567116101925780634a370ba5116101615780634a370ba51461032c5780636cd44b651461033f57806370a082311461035257806373ee45081461037b57600080fd5b8063313ce567146102d05780633644e515146102df5780633950935114610306578063422f10431461031957600080fd5b80630c74e633116101ce5780630c74e6331461026d57806318160ddd1461028e57806323b872dd1461029657806330adf81f146102a957600080fd5b806301ffc9a71461020057806306fdde03146102285780630902f1ac1461023d578063095ea7b31461025a575b600080fd5b61021361020e3660046120c6565b610576565b60405190151581526020015b60405180910390f35b6102306105ad565b60405161021f91906121d4565b61024561063f565b6040805192835260208301919091520161021f565b61021361026836600461207a565b61079f565b61028061027b366004612122565b6107b5565b60405190815260200161021f565b600254610280565b6102136102a4366004611f66565b610949565b6102807f6e71edae12b1b97f4d1f60370fef10105fa2faae0126114a169c64845d6126c981565b6040516012815260200161021f565b6102807f000000000000000000000000000000000000000000000000000000000000000081565b61021361031436600461207a565b6109fc565b610245610327366004612122565b610a33565b61028061033a366004612122565b610d59565b61028061034d3660046120f0565b610f28565b610280610360366004611e6e565b6001600160a01b031660009081526020819052604090205490565b6103a27f000000000000000000000000000000000000000000000000000000000000000081565b6040516001600160a01b03909116815260200161021f565b6103a27f000000000000000000000000000000000000000000000000000000000000000081565b6102806103ef366004611e6e565b60056020526000908152604090205481565b61028061040f366004612122565b610f4c565b6102806104223660046120f0565b610f96565b610230610faa565b61021361043d36600461207a565b610fb9565b61021361045036600461207a565b611054565b6102807f000000000000000000000000000000000000000000000000000000000000000081565b6102806103e581565b6102806104933660046120f0565b611061565b6104b76104a6366004611ebc565b63bc197c8160e01b95945050505050565b6040516001600160e01b0319909116815260200161021f565b6104e36104de366004612007565b61107d565b005b6102806104f3366004611e89565b6001600160a01b03918216600090815260016020908152604080832093909416825291909152205490565b61028061052c366004612122565b611287565b6104b761053f366004611fa2565b63f23a6e6160e01b95945050505050565b61024561055e3660046120f0565b6112d2565b61024561057136600461214e565b611329565b60006001600160e01b03198216630271189760e51b14806105a757506301ffc9a760e01b6001600160e01b03198316145b92915050565b6060600380546105bc906122ed565b80601f01602080910402602001604051908101604052809291908181526020018280546105e8906122ed565b80156106355780601f1061060a57610100808354040283529160200191610635565b820191906000526020600020905b81548152906001019060200180831161061857829003601f168201915b5050505050905090565b604051627eeac760e11b81523060048201527f0000000000000000000000000000000000000000000000000000000000000000602482015260009081906001600160a01b037f0000000000000000000000000000000000000000000000000000000000000000169062fdd58e9060440160206040518083038186803b1580156106c757600080fd5b505afa1580156106db573d6000803e3d6000fd5b505050506040513d601f19601f820116820180604052508101906106ff9190612109565b6040516370a0823160e01b81523060048201529092507f00000000000000000000000000000000000000000000000000000000000000006001600160a01b0316906370a082319060240160206040518083038186803b15801561076157600080fd5b505afa158015610775573d6000803e3d6000fd5b505050506040513d601f19601f820116820180604052508101906107999190612109565b90509091565b60006107ac338484611534565b50600192915050565b6000428210156107e05760405162461bcd60e51b81526004016107d790612207565b60405180910390fd5b6107e984610f28565b90508281101561082c5760405162461bcd60e51b815260206004820152600e60248201526d4e4654503a20536c69707061676560901b60448201526064016107d7565b604051637921219560e11b81526001600160a01b037f0000000000000000000000000000000000000000000000000000000000000000169063f242432a9061089e90339030907f0000000000000000000000000000000000000000000000000000000000000000908a9060040161219c565b600060405180830381600087803b1580156108b857600080fd5b505af11580156108cc573d6000803e3d6000fd5b506109069250506001600160a01b037f00000000000000000000000000000000000000000000000000000000000000001690503383611659565b604080518581526020810183905233917f526084042e0f69d422c5508801767c6e300b3af582eda7fe68d813bfd46e24da91015b60405180910390a29392505050565b60006109568484846116c1565b6001600160a01b0384166000908152600160209081526040808320338452909152902054828110156109db5760405162461bcd60e51b815260206004820152602860248201527f45524332303a207472616e7366657220616d6f756e74206578636565647320616044820152676c6c6f77616e636560c01b60648201526084016107d7565b6109ef85336109ea86856122aa565b611534565b60019150505b9392505050565b3360008181526001602090815260408083206001600160a01b038716845290915281205490916107ac9185906109ea90869061225f565b60008042831015610a565760405162461bcd60e51b81526004016107d790612207565b600254610b8657604051637921219560e11b81528492506001600160a01b037f0000000000000000000000000000000000000000000000000000000000000000169063f242432a90610ad290339030907f0000000000000000000000000000000000000000000000000000000000000000908b9060040161219c565b600060405180830381600087803b158015610aec57600080fd5b505af1158015610b00573d6000803e3d6000fd5b50610b3b9250506001600160a01b037f0000000000000000000000000000000000000000000000000000000000000000169050333085611899565b506040805185815260208101859052908101849052839033907fb4c03061fb5b7fed76389d5af8f2e0ddb09f8c70d1333abbb62582835e10accb9060600160405180910390a2610d47565b600080610b92876118d7565b9195509250905085841115610be95760405162461bcd60e51b815260206004820152601f60248201527f4e4654503a20496e73756666696369656e7420455243323020416d6f756e740060448201526064016107d7565b604051637921219560e11b81526001600160a01b037f0000000000000000000000000000000000000000000000000000000000000000169063f242432a90610c5b90339030907f0000000000000000000000000000000000000000000000000000000000000000908d9060040161219c565b600060405180830381600087803b158015610c7557600080fd5b505af1158015610c89573d6000803e3d6000fd5b50610cc49250506001600160a01b037f0000000000000000000000000000000000000000000000000000000000000000169050333087611899565b80610cce60025490565b83610cda576000610cdd565b60015b610cea9060ff168a6122aa565b610cf4919061228b565b610cfe9190612277565b604080518981526020810187905290810182905290935033907fb4c03061fb5b7fed76389d5af8f2e0ddb09f8c70d1333abbb62582835e10accb9060600160405180910390a250505b610d51338261190b565b935093915050565b600042821015610d7b5760405162461bcd60e51b81526004016107d790612207565b60008311610dcb5760405162461bcd60e51b815260206004820152601960248201527f4e4654503a205a65726f204e465473205265717565737465640000000000000060448201526064016107d7565b610dd483611061565b905083811115610e175760405162461bcd60e51b815260206004820152600e60248201526d4e4654503a20536c69707061676560901b60448201526064016107d7565b610e4c6001600160a01b037f000000000000000000000000000000000000000000000000000000000000000016333084611899565b604051637921219560e11b81526001600160a01b037f0000000000000000000000000000000000000000000000000000000000000000169063f242432a90610ebe90309033907f000000000000000000000000000000000000000000000000000000000000000090899060040161219c565b600060405180830381600087803b158015610ed857600080fd5b505af1158015610eec573d6000803e3d6000fd5b505060408051848152602081018790523393507f1e7da83aa6c758d7cc1871d4ace2d87df2c244331e9fb96802c2e190e8b8fb0292500161093a565b6000806000610f3561063f565b91509150610f44848383610f4c565b949350505050565b6000806103e5610f5c848761228b565b610f66919061228b565b90506000610f74868661225f565b610f80906103e861228b565b9050610f8c8183612277565b9695505050505050565b6000610fa1826118d7565b50909392505050565b6060600480546105bc906122ed565b3360009081526001602090815260408083206001600160a01b03861684529091528120548281101561103b5760405162461bcd60e51b815260206004820152602560248201527f45524332303a2064656372656173656420616c6c6f77616e63652062656c6f77604482015264207a65726f60d81b60648201526084016107d7565b61104a33856109ea86856122aa565b5060019392505050565b60006107ac3384846116c1565b600080600061106e61063f565b91509150610f44848284611287565b4284101561109d5760405162461bcd60e51b81526004016107d790612207565b6001600160a01b038716600090815260056020526040812080547f0000000000000000000000000000000000000000000000000000000000000000917f6e71edae12b1b97f4d1f60370fef10105fa2faae0126114a169c64845d6126c9918b918b918b918761110b83612328565b909155506040805160208101969096526001600160a01b0394851690860152929091166060840152608083015260a082015260c0810187905260e0016040516020818303038152906040528051906020012060405160200161118492919061190160f01b81526002810192909252602282015260420190565b60408051601f198184030181528282528051602091820120600080855291840180845281905260ff88169284019290925260608301869052608083018590529092509060019060a0016020604051602081039080840390855afa1580156111ef573d6000803e3d6000fd5b5050604051601f1901519150506001600160a01b038116158015906112255750886001600160a01b0316816001600160a01b0316145b6112715760405162461bcd60e51b815260206004820152601760248201527f4e4654503a20494e56414c49445f5349474e415455524500000000000000000060448201526064016107d7565b61127c898989611534565b505050505050505050565b600080611294858561228b565b6112a0906103e861228b565b905060006103e56112b187866122aa565b6112bb919061228b565b90506112c782826119ea565b509695505050505050565b6000806000806112e061063f565b915091506112ed60025490565b6112f7838761228b565b6113019190612277565b935061130c60025490565b611316828761228b565b6113209190612277565b92505050915091565b6000804283101561134c5760405162461bcd60e51b81526004016107d790612207565b611355866112d2565b9092509050848210156113b45760405162461bcd60e51b815260206004820152602160248201527f4e4654503a20496e73756666696369656e74204552433131353520416d6f756e6044820152601d60fa1b60648201526084016107d7565b838110156114045760405162461bcd60e51b815260206004820152601f60248201527f4e4654503a20496e73756666696369656e7420455243323020416d6f756e740060448201526064016107d7565b61140e3387611a30565b604080518381526020810183905290810187905233907f743033787f4738ff4d6a7225ce2bd0977ee5f86b91a902a58f5e4d0b297b46449060600160405180910390a2604051637921219560e11b81526001600160a01b037f0000000000000000000000000000000000000000000000000000000000000000169063f242432a906114c390309033907f000000000000000000000000000000000000000000000000000000000000000090889060040161219c565b600060405180830381600087803b1580156114dd57600080fd5b505af11580156114f1573d6000803e3d6000fd5b5061152b9250506001600160a01b037f00000000000000000000000000000000000000000000000000000000000000001690503383611659565b94509492505050565b6001600160a01b0383166115965760405162461bcd60e51b8152602060048201526024808201527f45524332303a20617070726f76652066726f6d20746865207a65726f206164646044820152637265737360e01b60648201526084016107d7565b6001600160a01b0382166115f75760405162461bcd60e51b815260206004820152602260248201527f45524332303a20617070726f766520746f20746865207a65726f206164647265604482015261737360f01b60648201526084016107d7565b6001600160a01b0383811660008181526001602090815260408083209487168084529482529182902085905590518481527f8c5be1e5ebec7d5bd14f71427d1e84f3dd0314c0f7b2291e5b200ac8c7c3b92591015b60405180910390a3505050565b6040516001600160a01b0383166024820152604481018290526116bc90849063a9059cbb60e01b906064015b60408051601f198184030181529190526020810180516001600160e01b03166001600160e01b031990931692909217909152611b7f565b505050565b6001600160a01b0383166117255760405162461bcd60e51b815260206004820152602560248201527f45524332303a207472616e736665722066726f6d20746865207a65726f206164604482015264647265737360d81b60648201526084016107d7565b6001600160a01b0382166117875760405162461bcd60e51b815260206004820152602360248201527f45524332303a207472616e7366657220746f20746865207a65726f206164647260448201526265737360e81b60648201526084016107d7565b6001600160a01b038316600090815260208190526040902054818110156117ff5760405162461bcd60e51b815260206004820152602660248201527f45524332303a207472616e7366657220616d6f756e7420657863656564732062604482015265616c616e636560d01b60648201526084016107d7565b61180982826122aa565b6001600160a01b03808616600090815260208190526040808220939093559085168152908120805484929061183f90849061225f565b92505081905550826001600160a01b0316846001600160a01b03167fddf252ad1be2c89b69c2b068fc378daa952ba7f163c4a11628f55a4df523b3ef8460405161188b91815260200190565b60405180910390a350505050565b6040516001600160a01b03808516602483015283166044820152606481018290526118d19085906323b872dd60e01b90608401611685565b50505050565b6000806000806118e561063f565b90925090506118fd6118f7828761228b565b836119ea565b909690955091935090915050565b6001600160a01b0382166119615760405162461bcd60e51b815260206004820152601f60248201527f45524332303a206d696e7420746f20746865207a65726f20616464726573730060448201526064016107d7565b8060026000828254611973919061225f565b90915550506001600160a01b038216600090815260208190526040812080548392906119a090849061225f565b90915550506040518181526001600160a01b038316906000907fddf252ad1be2c89b69c2b068fc378daa952ba7f163c4a11628f55a4df523b3ef9060200160405180910390a35050565b6000806119f78385612343565b15611a1857611a068385612277565b611a1190600161225f565b6001611a25565b611a228385612277565b60005b915091509250929050565b6001600160a01b038216611a905760405162461bcd60e51b815260206004820152602160248201527f45524332303a206275726e2066726f6d20746865207a65726f206164647265736044820152607360f81b60648201526084016107d7565b6001600160a01b03821660009081526020819052604090205481811015611b045760405162461bcd60e51b815260206004820152602260248201527f45524332303a206275726e20616d6f756e7420657863656564732062616c616e604482015261636560f01b60648201526084016107d7565b611b0e82826122aa565b6001600160a01b03841660009081526020819052604081209190915560028054849290611b3c9084906122aa565b90915550506040518281526000906001600160a01b038516907fddf252ad1be2c89b69c2b068fc378daa952ba7f163c4a11628f55a4df523b3ef9060200161164c565b6000611bd4826040518060400160405280602081526020017f5361666545524332303a206c6f772d6c6576656c2063616c6c206661696c6564815250856001600160a01b0316611c519092919063ffffffff16565b8051909150156116bc5780806020019051810190611bf291906120a4565b6116bc5760405162461bcd60e51b815260206004820152602a60248201527f5361666545524332303a204552433230206f7065726174696f6e20646964206e6044820152691bdd081cdd58d8d9595960b21b60648201526084016107d7565b6060610f44848460008585843b611caa5760405162461bcd60e51b815260206004820152601d60248201527f416464726573733a2063616c6c20746f206e6f6e2d636f6e747261637400000060448201526064016107d7565b600080866001600160a01b03168587604051611cc69190612180565b60006040518083038185875af1925050503d8060008114611d03576040519150601f19603f3d011682016040523d82523d6000602084013e611d08565b606091505b5091509150611d18828286611d23565b979650505050505050565b60608315611d325750816109f5565b825115611d425782518084602001fd5b8160405162461bcd60e51b81526004016107d791906121d4565b80356001600160a01b0381168114611d7357600080fd5b919050565b600082601f830112611d8957600080fd5b8135602067ffffffffffffffff821115611da557611da5612383565b8160051b611db482820161222e565b838152828101908684018388018501891015611dcf57600080fd5b600093505b85841015611df2578035835260019390930192918401918401611dd4565b50979650505050505050565b600082601f830112611e0f57600080fd5b813567ffffffffffffffff811115611e2957611e29612383565b611e3c601f8201601f191660200161222e565b818152846020838601011115611e5157600080fd5b816020850160208301376000918101602001919091529392505050565b600060208284031215611e8057600080fd5b6109f582611d5c565b60008060408385031215611e9c57600080fd5b611ea583611d5c565b9150611eb360208401611d5c565b90509250929050565b600080600080600060a08688031215611ed457600080fd5b611edd86611d5c565b9450611eeb60208701611d5c565b9350604086013567ffffffffffffffff80821115611f0857600080fd5b611f1489838a01611d78565b94506060880135915080821115611f2a57600080fd5b611f3689838a01611d78565b93506080880135915080821115611f4c57600080fd5b50611f5988828901611dfe565b9150509295509295909350565b600080600060608486031215611f7b57600080fd5b611f8484611d5c565b9250611f9260208501611d5c565b9150604084013590509250925092565b600080600080600060a08688031215611fba57600080fd5b611fc386611d5c565b9450611fd160208701611d5c565b93506040860135925060608601359150608086013567ffffffffffffffff811115611ffb57600080fd5b611f5988828901611dfe565b600080600080600080600060e0888a03121561202257600080fd5b61202b88611d5c565b965061203960208901611d5c565b95506040880135945060608801359350608088013560ff8116811461205d57600080fd5b9699959850939692959460a0840135945060c09093013592915050565b6000806040838503121561208d57600080fd5b61209683611d5c565b946020939093013593505050565b6000602082840312156120b657600080fd5b815180151581146109f557600080fd5b6000602082840312156120d857600080fd5b81356001600160e01b0319811681146109f557600080fd5b60006020828403121561210257600080fd5b5035919050565b60006020828403121561211b57600080fd5b5051919050565b60008060006060848603121561213757600080fd5b505081359360208301359350604090920135919050565b6000806000806080858703121561216457600080fd5b5050823594602084013594506040840135936060013592509050565b600082516121928184602087016122c1565b9190910192915050565b6001600160a01b0394851681529290931660208301526040820152606081019190915260a06080820181905260009082015260c00190565b60208152600082518060208401526121f38160408501602087016122c1565b601f01601f19169190910160400192915050565b6020808252600d908201526c139195140e8811561412549151609a1b604082015260600190565b604051601f8201601f1916810167ffffffffffffffff8111828210171561225757612257612383565b604052919050565b6000821982111561227257612272612357565b500190565b6000826122865761228661236d565b500490565b60008160001904831182151516156122a5576122a5612357565b500290565b6000828210156122bc576122bc612357565b500390565b60005b838110156122dc5781810151838201526020016122c4565b838111156118d15750506000910152565b600181811c9082168061230157607f821691505b6020821081141561232257634e487b7160e01b600052602260045260246000fd5b50919050565b600060001982141561233c5761233c612357565b5060010190565b6000826123525761235261236d565b500690565b634e487b7160e01b600052601160045260246000fd5b634e487b7160e01b600052601260045260246000fd5b634e487b7160e01b600052604160045260246000fdfea264697066735822122091c90950e62a7e369ba950ab70270ad602dbb2ddbdb48594be9f57f449125bf564736f6c63430008060033",
  "devdoc": {
    "kind": "dev",
    "methods": {
      "allowance(address,address)": {
        "details": "See {IERC20-allowance}."
      },
      "approve(address,uint256)": {
        "details": "See {IERC20-approve}. Requirements: - `spender` cannot be the zero address."
      },
      "balanceOf(address)": {
        "details": "See {IERC20-balanceOf}."
      },
      "decimals()": {
        "details": "Returns the number of decimals used to get its user representation. For example, if `decimals` equals `2`, a balance of `505` tokens should be displayed to a user as `5,05` (`505 / 10 ** 2`). Tokens usually opt for a value of 18, imitating the relationship between Ether and Wei. This is the value {ERC20} uses, unless this function is overridden; NOTE: This information is only used for _display_ purposes: it in no way affects any of the arithmetic of the contract, including {IERC20-balanceOf} and {IERC20-transfer}."
      },
      "decreaseAllowance(address,uint256)": {
        "details": "Atomically decreases the allowance granted to `spender` by the caller. This is an alternative to {approve} that can be used as a mitigation for problems described in {IERC20-approve}. Emits an {Approval} event indicating the updated allowance. Requirements: - `spender` cannot be the zero address. - `spender` must have allowance for the caller of at least `subtractedValue`."
      },
      "increaseAllowance(address,uint256)": {
        "details": "Atomically increases the allowance granted to `spender` by the caller. This is an alternative to {approve} that can be used as a mitigation for problems described in {IERC20-approve}. Emits an {Approval} event indicating the updated allowance. Requirements: - `spender` cannot be the zero address."
      },
      "name()": {
        "details": "Returns the name of the token."
      },
      "supportsInterface(bytes4)": {
        "details": "See {IERC165-supportsInterface}."
      },
      "symbol()": {
        "details": "Returns the symbol of the token, usually a shorter version of the name."
      },
      "totalSupply()": {
        "details": "See {IERC20-totalSupply}."
      },
      "transfer(address,uint256)": {
        "details": "See {IERC20-transfer}. Requirements: - `recipient` cannot be the zero address. - the caller must have a balance of at least `amount`."
      },
      "transferFrom(address,address,uint256)": {
        "details": "See {IERC20-transferFrom}. Emits an {Approval} event indicating the updated allowance. This is not required by the EIP. See the note at the beginning of {ERC20}. Requirements: - `sender` and `recipient` cannot be the zero address. - `sender` must have a balance of at least `amount`. - the caller must have allowance for ``sender``'s tokens of at least `amount`."
      }
    },
    "version": 1
  },
  "userdoc": {
    "kind": "user",
    "methods": {
      "calculateInputAmount_InputFee(uint256,uint256,uint256)": {
        "notice": "fee deducted in InputToken"
      },
      "calculateOutputAmount_OutputFee(uint256,uint256,uint256)": {
        "notice": "fee deducted in OutputToken"
      },
      "getPriceERC1155toERC20(uint256)": {
        "notice": "fee deducted in ERC20"
      },
      "getPriceERC20toERC1155Exact(uint256)": {
        "notice": "fee deducted in ERC20"
      }
    },
    "version": 1
  },
  "storageLayout": {
    "storage": [
      {
        "astId": 1369,
        "contract": "contracts/NFTPool.sol:NFTPool",
        "label": "_balances",
        "offset": 0,
        "slot": "0",
        "type": "t_mapping(t_address,t_uint256)"
      },
      {
        "astId": 1375,
        "contract": "contracts/NFTPool.sol:NFTPool",
        "label": "_allowances",
        "offset": 0,
        "slot": "1",
        "type": "t_mapping(t_address,t_mapping(t_address,t_uint256))"
      },
      {
        "astId": 1377,
        "contract": "contracts/NFTPool.sol:NFTPool",
        "label": "_totalSupply",
        "offset": 0,
        "slot": "2",
        "type": "t_uint256"
      },
      {
        "astId": 1379,
        "contract": "contracts/NFTPool.sol:NFTPool",
        "label": "_name",
        "offset": 0,
        "slot": "3",
        "type": "t_string_storage"
      },
      {
        "astId": 1381,
        "contract": "contracts/NFTPool.sol:NFTPool",
        "label": "_symbol",
        "offset": 0,
        "slot": "4",
        "type": "t_string_storage"
      },
      {
        "astId": 3138,
        "contract": "contracts/NFTPool.sol:NFTPool",
        "label": "nonces",
        "offset": 0,
        "slot": "5",
        "type": "t_mapping(t_address,t_uint256)"
      }
    ],
    "types": {
      "t_address": {
        "encoding": "inplace",
        "label": "address",
        "numberOfBytes": "20"
      },
      "t_mapping(t_address,t_mapping(t_address,t_uint256))": {
        "encoding": "mapping",
        "key": "t_address",
        "label": "mapping(address => mapping(address => uint256))",
        "numberOfBytes": "32",
        "value": "t_mapping(t_address,t_uint256)"
      },
      "t_mapping(t_address,t_uint256)": {
        "encoding": "mapping",
        "key": "t_address",
        "label": "mapping(address => uint256)",
        "numberOfBytes": "32",
        "value": "t_uint256"
      },
      "t_string_storage": {
        "encoding": "bytes",
        "label": "string",
        "numberOfBytes": "32"
      },
      "t_uint256": {
        "encoding": "inplace",
        "label": "uint256",
        "numberOfBytes": "32"
      }
    }
  }
}