{
  "address": "0xE8C9B858c34195AE4bdA373F8b487CDE965fbe9f",
  "abi": [
    {
      "inputs": [
        {
          "internalType": "contract IERC20",
          "name": "_ERC20Token",
          "type": "address"
        },
        {
          "internalType": "contract IERC1155",
          "name": "_ERC1155Token",
          "type": "address"
        },
        {
          "internalType": "uint256",
          "name": "_ERC1155ID",
          "type": "uint256"
        }
      ],
      "stateMutability": "nonpayable",
      "type": "constructor"
    },
    {
      "anonymous": false,
      "inputs": [
        {
          "indexed": true,
          "internalType": "address",
          "name": "owner",
          "type": "address"
        },
        {
          "indexed": true,
          "internalType": "address",
          "name": "spender",
          "type": "address"
        },
        {
          "indexed": false,
          "internalType": "uint256",
          "name": "value",
          "type": "uint256"
        }
      ],
      "name": "Approval",
      "type": "event"
    },
    {
      "anonymous": false,
      "inputs": [
        {
          "indexed": true,
          "internalType": "address",
          "name": "sender",
          "type": "address"
        },
        {
          "indexed": false,
          "internalType": "uint256",
          "name": "ERC1155Amount",
          "type": "uint256"
        },
        {
          "indexed": false,
          "internalType": "uint256",
          "name": "ERC20Amount",
          "type": "uint256"
        },
        {
          "indexed": false,
          "internalType": "uint256",
          "name": "lpAmount",
          "type": "uint256"
        }
      ],
      "name": "Burn",
      "type": "event"
    },
    {
      "anonymous": false,
      "inputs": [
        {
          "indexed": true,
          "internalType": "address",
          "name": "sender",
          "type": "address"
        },
        {
          "indexed": false,
          "internalType": "uint256",
          "name": "ERC1155Amount",
          "type": "uint256"
        },
        {
          "indexed": false,
          "internalType": "uint256",
          "name": "ERC20Amount",
          "type": "uint256"
        },
        {
          "indexed": false,
          "internalType": "uint256",
          "name": "lpAmount",
          "type": "uint256"
        }
      ],
      "name": "Mint",
      "type": "event"
    },
    {
      "anonymous": false,
      "inputs": [
        {
          "indexed": true,
          "internalType": "address",
          "name": "sender",
          "type": "address"
        },
        {
          "indexed": false,
          "internalType": "uint256",
          "name": "ERC1155AmountIn",
          "type": "uint256"
        },
        {
          "indexed": false,
          "internalType": "uint256",
          "name": "ERC20AmountOut",
          "type": "uint256"
        }
      ],
      "name": "SwapERC1155ToERC20",
      "type": "event"
    },
    {
      "anonymous": false,
      "inputs": [
        {
          "indexed": true,
          "internalType": "address",
          "name": "sender",
          "type": "address"
        },
        {
          "indexed": false,
          "internalType": "uint256",
          "name": "ERC20AmountIn",
          "type": "uint256"
        },
        {
          "indexed": false,
          "internalType": "uint256",
          "name": "ERC1155AmountOut",
          "type": "uint256"
        }
      ],
      "name": "SwapERC20ToERC1155",
      "type": "event"
    },
    {
      "anonymous": false,
      "inputs": [
        {
          "indexed": true,
          "internalType": "address",
          "name": "from",
          "type": "address"
        },
        {
          "indexed": true,
          "internalType": "address",
          "name": "to",
          "type": "address"
        },
        {
          "indexed": false,
          "internalType": "uint256",
          "name": "value",
          "type": "uint256"
        }
      ],
      "name": "Transfer",
      "type": "event"
    },
    {
      "inputs": [],
      "name": "DOMAIN_SEPARATOR",
      "outputs": [
        {
          "internalType": "bytes32",
          "name": "",
          "type": "bytes32"
        }
      ],
      "stateMutability": "view",
      "type": "function"
    },
    {
      "inputs": [],
      "name": "ERC1155ID",
      "outputs": [
        {
          "internalType": "uint256",
          "name": "",
          "type": "uint256"
        }
      ],
      "stateMutability": "view",
      "type": "function"
    },
    {
      "inputs": [],
      "name": "ERC1155Token",
      "outputs": [
        {
          "internalType": "contract IERC1155",
          "name": "",
          "type": "address"
        }
      ],
      "stateMutability": "view",
      "type": "function"
    },
    {
      "inputs": [],
      "name": "ERC20Token",
      "outputs": [
        {
          "internalType": "contract IERC20",
          "name": "",
          "type": "address"
        }
      ],
      "stateMutability": "view",
      "type": "function"
    },
    {
      "inputs": [],
      "name": "FEE_MULTIPLIER",
      "outputs": [
        {
          "internalType": "uint256",
          "name": "",
          "type": "uint256"
        }
      ],
      "stateMutability": "view",
      "type": "function"
    },
    {
      "inputs": [],
      "name": "PERMIT_TYPEHASH",
      "outputs": [
        {
          "internalType": "bytes32",
          "name": "",
          "type": "bytes32"
        }
      ],
      "stateMutability": "view",
      "type": "function"
    },
    {
      "inputs": [
        {
          "internalType": "uint256",
          "name": "_maxERC20",
          "type": "uint256"
        },
        {
          "internalType": "uint256",
          "name": "_ERC1155Amount",
          "type": "uint256"
        },
        {
          "internalType": "uint256",
          "name": "_deadline",
          "type": "uint256"
        }
      ],
      "name": "SwapERC20toERC1155Exact",
      "outputs": [
        {
          "internalType": "uint256",
          "name": "ERC20Sold",
          "type": "uint256"
        }
      ],
      "stateMutability": "nonpayable",
      "type": "function"
    },
    {
      "inputs": [
        {
          "internalType": "uint256",
          "name": "_ERC1155Amount",
          "type": "uint256"
        },
        {
          "internalType": "uint256",
          "name": "_minERC20",
          "type": "uint256"
        },
        {
          "internalType": "uint256",
          "name": "_deadline",
          "type": "uint256"
        }
      ],
      "name": "SwapExactERC1155ToERC20",
      "outputs": [
        {
          "internalType": "uint256",
          "name": "ERC20Bought",
          "type": "uint256"
        }
      ],
      "stateMutability": "nonpayable",
      "type": "function"
    },
    {
      "inputs": [
        {
          "internalType": "uint256",
          "name": "_ERC1155Amount",
          "type": "uint256"
        },
        {
          "internalType": "uint256",
          "name": "_maxERC20Amount",
          "type": "uint256"
        },
        {
          "internalType": "uint256",
          "name": "_deadline",
          "type": "uint256"
        }
      ],
      "name": "addLiquidity",
      "outputs": [
        {
          "internalType": "uint256",
          "name": "ERC20Amount",
          "type": "uint256"
        },
        {
          "internalType": "uint256",
          "name": "lpMinted",
          "type": "uint256"
        }
      ],
      "stateMutability": "nonpayable",
      "type": "function"
    },
    {
      "inputs": [
        {
          "internalType": "address",
          "name": "owner",
          "type": "address"
        },
        {
          "internalType": "address",
          "name": "spender",
          "type": "address"
        }
      ],
      "name": "allowance",
      "outputs": [
        {
          "internalType": "uint256",
          "name": "",
          "type": "uint256"
        }
      ],
      "stateMutability": "view",
      "type": "function"
    },
    {
      "inputs": [
        {
          "internalType": "address",
          "name": "spender",
          "type": "address"
        },
        {
          "internalType": "uint256",
          "name": "amount",
          "type": "uint256"
        }
      ],
      "name": "approve",
      "outputs": [
        {
          "internalType": "bool",
          "name": "",
          "type": "bool"
        }
      ],
      "stateMutability": "nonpayable",
      "type": "function"
    },
    {
      "inputs": [
        {
          "internalType": "address",
          "name": "account",
          "type": "address"
        }
      ],
      "name": "balanceOf",
      "outputs": [
        {
          "internalType": "uint256",
          "name": "",
          "type": "uint256"
        }
      ],
      "stateMutability": "view",
      "type": "function"
    },
    {
      "inputs": [
        {
          "internalType": "uint256",
          "name": "outputAmount",
          "type": "uint256"
        },
        {
          "internalType": "uint256",
          "name": "inputReserve",
          "type": "uint256"
        },
        {
          "internalType": "uint256",
          "name": "outputReserve",
          "type": "uint256"
        }
      ],
      "name": "calculateInputAmount_InputFee",
      "outputs": [
        {
          "internalType": "uint256",
          "name": "price",
          "type": "uint256"
        }
      ],
      "stateMutability": "pure",
      "type": "function"
    },
    {
      "inputs": [
        {
          "internalType": "uint256",
          "name": "inputAmount",
          "type": "uint256"
        },
        {
          "internalType": "uint256",
          "name": "inputReserve",
          "type": "uint256"
        },
        {
          "internalType": "uint256",
          "name": "outputReserve",
          "type": "uint256"
        }
      ],
      "name": "calculateOutputAmount_OutputFee",
      "outputs": [
        {
          "internalType": "uint256",
          "name": "",
          "type": "uint256"
        }
      ],
      "stateMutability": "pure",
      "type": "function"
    },
    {
      "inputs": [],
      "name": "decimals",
      "outputs": [
        {
          "internalType": "uint8",
          "name": "",
          "type": "uint8"
        }
      ],
      "stateMutability": "view",
      "type": "function"
    },
    {
      "inputs": [
        {
          "internalType": "address",
          "name": "spender",
          "type": "address"
        },
        {
          "internalType": "uint256",
          "name": "subtractedValue",
          "type": "uint256"
        }
      ],
      "name": "decreaseAllowance",
      "outputs": [
        {
          "internalType": "bool",
          "name": "",
          "type": "bool"
        }
      ],
      "stateMutability": "nonpayable",
      "type": "function"
    },
    {
      "inputs": [
        {
          "internalType": "uint256",
          "name": "_ERC1155Amount",
          "type": "uint256"
        }
      ],
      "name": "getPriceERC1155toERC20",
      "outputs": [
        {
          "internalType": "uint256",
          "name": "ERC20Bought",
          "type": "uint256"
        }
      ],
      "stateMutability": "view",
      "type": "function"
    },
    {
      "inputs": [
        {
          "internalType": "uint256",
          "name": "_ERC1155Amount",
          "type": "uint256"
        }
      ],
      "name": "getPriceERC20toERC1155Exact",
      "outputs": [
        {
          "internalType": "uint256",
          "name": "ERC20Required",
          "type": "uint256"
        }
      ],
      "stateMutability": "view",
      "type": "function"
    },
    {
      "inputs": [],
      "name": "getReserves",
      "outputs": [
        {
          "internalType": "uint256",
          "name": "ERC1155Reserve",
          "type": "uint256"
        },
        {
          "internalType": "uint256",
          "name": "ERC20Reserve",
          "type": "uint256"
        }
      ],
      "stateMutability": "view",
      "type": "function"
    },
    {
      "inputs": [
        {
          "internalType": "address",
          "name": "spender",
          "type": "address"
        },
        {
          "internalType": "uint256",
          "name": "addedValue",
          "type": "uint256"
        }
      ],
      "name": "increaseAllowance",
      "outputs": [
        {
          "internalType": "bool",
          "name": "",
          "type": "bool"
        }
      ],
      "stateMutability": "nonpayable",
      "type": "function"
    },
    {
      "inputs": [],
      "name": "name",
      "outputs": [
        {
          "internalType": "string",
          "name": "",
          "type": "string"
        }
      ],
      "stateMutability": "view",
      "type": "function"
    },
    {
      "inputs": [
        {
          "internalType": "address",
          "name": "",
          "type": "address"
        }
      ],
      "name": "nonces",
      "outputs": [
        {
          "internalType": "uint256",
          "name": "",
          "type": "uint256"
        }
      ],
      "stateMutability": "view",
      "type": "function"
    },
    {
      "inputs": [
        {
          "internalType": "address",
          "name": "",
          "type": "address"
        },
        {
          "internalType": "address",
          "name": "",
          "type": "address"
        },
        {
          "internalType": "uint256[]",
          "name": "",
          "type": "uint256[]"
        },
        {
          "internalType": "uint256[]",
          "name": "",
          "type": "uint256[]"
        },
        {
          "internalType": "bytes",
          "name": "",
          "type": "bytes"
        }
      ],
      "name": "onERC1155BatchReceived",
      "outputs": [
        {
          "internalType": "bytes4",
          "name": "",
          "type": "bytes4"
        }
      ],
      "stateMutability": "nonpayable",
      "type": "function"
    },
    {
      "inputs": [
        {
          "internalType": "address",
          "name": "",
          "type": "address"
        },
        {
          "internalType": "address",
          "name": "",
          "type": "address"
        },
        {
          "internalType": "uint256",
          "name": "",
          "type": "uint256"
        },
        {
          "internalType": "uint256",
          "name": "",
          "type": "uint256"
        },
        {
          "internalType": "bytes",
          "name": "",
          "type": "bytes"
        }
      ],
      "name": "onERC1155Received",
      "outputs": [
        {
          "internalType": "bytes4",
          "name": "",
          "type": "bytes4"
        }
      ],
      "stateMutability": "nonpayable",
      "type": "function"
    },
    {
      "inputs": [
        {
          "internalType": "address",
          "name": "owner",
          "type": "address"
        },
        {
          "internalType": "address",
          "name": "spender",
          "type": "address"
        },
        {
          "internalType": "uint256",
          "name": "value",
          "type": "uint256"
        },
        {
          "internalType": "uint256",
          "name": "deadline",
          "type": "uint256"
        },
        {
          "internalType": "uint8",
          "name": "v",
          "type": "uint8"
        },
        {
          "internalType": "bytes32",
          "name": "r",
          "type": "bytes32"
        },
        {
          "internalType": "bytes32",
          "name": "s",
          "type": "bytes32"
        }
      ],
      "name": "permit",
      "outputs": [],
      "stateMutability": "nonpayable",
      "type": "function"
    },
    {
      "inputs": [
        {
          "internalType": "uint256",
          "name": "_lpAmount",
          "type": "uint256"
        },
        {
          "internalType": "uint256",
          "name": "_minERC1155",
          "type": "uint256"
        },
        {
          "internalType": "uint256",
          "name": "_minERC20",
          "type": "uint256"
        },
        {
          "internalType": "uint256",
          "name": "_deadline",
          "type": "uint256"
        }
      ],
      "name": "removeLiquidity",
      "outputs": [
        {
          "internalType": "uint256",
          "name": "ERC1155Amount",
          "type": "uint256"
        },
        {
          "internalType": "uint256",
          "name": "ERC20Amount",
          "type": "uint256"
        }
      ],
      "stateMutability": "nonpayable",
      "type": "function"
    },
    {
      "inputs": [
        {
          "internalType": "bytes4",
          "name": "interfaceId",
          "type": "bytes4"
        }
      ],
      "name": "supportsInterface",
      "outputs": [
        {
          "internalType": "bool",
          "name": "",
          "type": "bool"
        }
      ],
      "stateMutability": "view",
      "type": "function"
    },
    {
      "inputs": [],
      "name": "symbol",
      "outputs": [
        {
          "internalType": "string",
          "name": "",
          "type": "string"
        }
      ],
      "stateMutability": "view",
      "type": "function"
    },
    {
      "inputs": [],
      "name": "totalSupply",
      "outputs": [
        {
          "internalType": "uint256",
          "name": "",
          "type": "uint256"
        }
      ],
      "stateMutability": "view",
      "type": "function"
    },
    {
      "inputs": [
        {
          "internalType": "address",
          "name": "recipient",
          "type": "address"
        },
        {
          "internalType": "uint256",
          "name": "amount",
          "type": "uint256"
        }
      ],
      "name": "transfer",
      "outputs": [
        {
          "internalType": "bool",
          "name": "",
          "type": "bool"
        }
      ],
      "stateMutability": "nonpayable",
      "type": "function"
    },
    {
      "inputs": [
        {
          "internalType": "address",
          "name": "sender",
          "type": "address"
        },
        {
          "internalType": "address",
          "name": "recipient",
          "type": "address"
        },
        {
          "internalType": "uint256",
          "name": "amount",
          "type": "uint256"
        }
      ],
      "name": "transferFrom",
      "outputs": [
        {
          "internalType": "bool",
          "name": "",
          "type": "bool"
        }
      ],
      "stateMutability": "nonpayable",
      "type": "function"
    }
  ],
  "transactionHash": "0xe81c8aa353f1ed927068069655f0388245804039bfe009eb8262c31e7351d006",
  "args": [
    "0xdCf0aF9e59C002FA3AA091a46196b37530FD48a8",
    "0x63FCD4D38ff475bccbe210c923E0d8c1b121Db48",
    10
  ],
  "solcInputHash": "523f54fb56adfe22dccb5aeae18c0811",
  "bytecode": "0x6101006040523480156200001257600080fd5b5060405162002763380380620027638339810160408190526200003591620002bb565b604080518082018252600a81526904e4654506f6f6c204c560b41b60208083019182528351808501909452600584526404e46544c560dc1b908401528151919291620000849160039162000215565b5080516200009a90600490602084019062000215565b5050506001600160a01b03831615801590620000be57506001600160a01b03821615155b620000fe5760405162461bcd60e51b815260206004820152600c60248201526b4e756c6c204164647265737360a01b604482015260640160405180910390fd5b6001600160601b0319606084811b821660805283901b1660a05260c08190526040805180820182526007815266139195141bdbdb60ca1b6020918201528151808301835260018152603160f81b9082015290514691620001ef917f8b73c3c69bb8fe3d512ecc4cf759cc79239f7b179b0ffacaa9a75d522b39400f917f223c272cf0fc1bb201d22b544a3904d41fb74922ba29c6aa71886ba2c5d657fb917fc89efdaa54c0f20c7adf612882df0950f5a951637e0307cdcb4c672f298b8bc69186913091019485526020850193909352604084019190915260608301526001600160a01b0316608082015260a00190565b60408051601f19818403018152919052805160209091012060e052506200035992505050565b828054620002239062000303565b90600052602060002090601f01602090048101928262000247576000855562000292565b82601f106200026257805160ff191683800117855562000292565b8280016001018555821562000292579182015b828111156200029257825182559160200191906001019062000275565b50620002a0929150620002a4565b5090565b5b80821115620002a05760008155600101620002a5565b600080600060608486031215620002d157600080fd5b8351620002de8162000340565b6020850151909350620002f18162000340565b80925050604084015190509250925092565b600181811c908216806200031857607f821691505b602082108114156200033a57634e487b7160e01b600052602260045260246000fd5b50919050565b6001600160a01b03811681146200035657600080fd5b50565b60805160601c60a05160601c60c05160e0516123456200041e600039600081816102b7015261107901526000818161040701528181610613015281816108d901528181610a7901528181610e0201528181610f73015261144101526000818161034001528181610646015281816108a801528181610a4801528181610dd101528181610f42015261141001526000818161037f015281816106d70152818161094201528181610ae201528181610d9201528181610fdc01526114aa01526123456000f3fe608060405234801561001057600080fd5b50600436106101e55760003560e01c80637ecebe001161010f578063b91686dd116100a2578063dd62ed3e11610071578063dd62ed3e146104b8578063ee641139146104f1578063f23a6e6114610504578063f88bf15a1461052357600080fd5b8063b91686dd14610445578063bc197c8114610458578063cc5fa7da14610490578063d505accf146104a357600080fd5b8063a9059cbb116100de578063a9059cbb146103ef578063ae7eaa0414610402578063b591b13c14610429578063b5b1493a1461043257600080fd5b80637ecebe00146103a15780639077c739146103c157806395d89b41146103d4578063a457c2d7146103dc57600080fd5b8063313ce567116101875780636cd44b65116101565780636cd44b65146102ff57806370a082311461031257806373ee45081461033b5780637a80760e1461037a57600080fd5b8063313ce567146102a35780633644e515146102b257806339509351146102d9578063422f1043146102ec57600080fd5b8063095ea7b3116101c3578063095ea7b31461024457806318160ddd1461025757806323b872dd1461026957806330adf81f1461027c57600080fd5b806301ffc9a7146101ea57806306fdde03146102125780630902f1ac14610227575b600080fd5b6101fd6101f836600461203c565b610536565b60405190151581526020015b60405180910390f35b61021a61056d565b604051610209919061214a565b61022f6105ff565b60408051928352602083019190915201610209565b6101fd610252366004611ff0565b61075f565b6002545b604051908152602001610209565b6101fd610277366004611edc565b610775565b61025b7f6e71edae12b1b97f4d1f60370fef10105fa2faae0126114a169c64845d6126c981565b60405160128152602001610209565b61025b7f000000000000000000000000000000000000000000000000000000000000000081565b6101fd6102e7366004611ff0565b61082d565b61022f6102fa366004612098565b610864565b61025b61030d366004612066565b610ba2565b61025b610320366004611de4565b6001600160a01b031660009081526020819052604090205490565b6103627f000000000000000000000000000000000000000000000000000000000000000081565b6040516001600160a01b039091168152602001610209565b6103627f000000000000000000000000000000000000000000000000000000000000000081565b61025b6103af366004611de4565b60056020526000908152604090205481565b61025b6103cf366004612098565b610bc6565b61021a610c10565b6101fd6103ea366004611ff0565b610c1f565b6101fd6103fd366004611ff0565b610cba565b61025b7f000000000000000000000000000000000000000000000000000000000000000081565b61025b6103e581565b61025b610440366004612098565b610cc7565b61025b610453366004612066565b610ea1565b610477610466366004611e32565b63bc197c8160e01b95945050505050565b6040516001600160e01b03199091168152602001610209565b61025b61049e366004612098565b610ebd565b6104b66104b1366004611f7d565b61103d565b005b61025b6104c6366004611dff565b6001600160a01b03918216600090815260016020908152604080832093909416825291909152205490565b61025b6104ff366004612098565b611247565b610477610512366004611f18565b63f23a6e6160e01b95945050505050565b61022f6105313660046120c4565b611292565b60006001600160e01b03198216630271189760e51b148061056757506301ffc9a760e01b6001600160e01b03198316145b92915050565b60606003805461057c90612263565b80601f01602080910402602001604051908101604052809291908181526020018280546105a890612263565b80156105f55780601f106105ca576101008083540402835291602001916105f5565b820191906000526020600020905b8154815290600101906020018083116105d857829003601f168201915b5050505050905090565b604051627eeac760e11b81523060048201527f0000000000000000000000000000000000000000000000000000000000000000602482015260009081906001600160a01b037f0000000000000000000000000000000000000000000000000000000000000000169062fdd58e9060440160206040518083038186803b15801561068757600080fd5b505afa15801561069b573d6000803e3d6000fd5b505050506040513d601f19601f820116820180604052508101906106bf919061207f565b6040516370a0823160e01b81523060048201529092507f00000000000000000000000000000000000000000000000000000000000000006001600160a01b0316906370a082319060240160206040518083038186803b15801561072157600080fd5b505afa158015610735573d6000803e3d6000fd5b505050506040513d601f19601f82011682018060405250810190610759919061207f565b90509091565b600061076c3384846114de565b50600192915050565b6000610782848484611603565b6001600160a01b03841660009081526001602090815260408083203384529091529020548281101561080c5760405162461bcd60e51b815260206004820152602860248201527f45524332303a207472616e7366657220616d6f756e74206578636565647320616044820152676c6c6f77616e636560c01b60648201526084015b60405180910390fd5b610820853361081b8685612220565b6114de565b60019150505b9392505050565b3360008181526001602090815260408083206001600160a01b0387168452909152812054909161076c91859061081b9086906121d5565b600080428310156108875760405162461bcd60e51b81526004016108039061217d565b6002546109b757604051637921219560e11b81528492506001600160a01b037f0000000000000000000000000000000000000000000000000000000000000000169063f242432a9061090390339030907f0000000000000000000000000000000000000000000000000000000000000000908b90600401612112565b600060405180830381600087803b15801561091d57600080fd5b505af1158015610931573d6000803e3d6000fd5b5061096c9250506001600160a01b037f00000000000000000000000000000000000000000000000000000000000000001690503330856117db565b506040805185815260208101859052908101849052839033907fb4c03061fb5b7fed76389d5af8f2e0ddb09f8c70d1333abbb62582835e10accb9060600160405180910390a2610b90565b6000806109c26105ff565b909250905060006109dc6109d6838a612201565b8461184c565b909550905086851115610a315760405162461bcd60e51b815260206004820152601f60248201527f4e4654503a20496e73756666696369656e7420455243323020416d6f756e74006044820152606401610803565b604051637921219560e11b81526001600160a01b037f0000000000000000000000000000000000000000000000000000000000000000169063f242432a90610aa390339030907f0000000000000000000000000000000000000000000000000000000000000000908e90600401612112565b600060405180830381600087803b158015610abd57600080fd5b505af1158015610ad1573d6000803e3d6000fd5b50610b0c9250506001600160a01b037f00000000000000000000000000000000000000000000000000000000000000001690503330886117db565b82610b1660025490565b82610b22576000610b25565b60015b610b329060ff168b612220565b610b3c9190612201565b610b4691906121ed565b604080518a81526020810188905290810182905290945033907fb4c03061fb5b7fed76389d5af8f2e0ddb09f8c70d1333abbb62582835e10accb9060600160405180910390a25050505b610b9a3382611892565b935093915050565b6000806000610baf6105ff565b91509150610bbe848383610bc6565b949350505050565b6000806103e5610bd68487612201565b610be09190612201565b90506000610bee86866121d5565b610bfa906103e8612201565b9050610c0681836121ed565b9695505050505050565b60606004805461057c90612263565b3360009081526001602090815260408083206001600160a01b038616845290915281205482811015610ca15760405162461bcd60e51b815260206004820152602560248201527f45524332303a2064656372656173656420616c6c6f77616e63652062656c6f77604482015264207a65726f60d81b6064820152608401610803565b610cb0338561081b8685612220565b5060019392505050565b600061076c338484611603565b600042821015610ce95760405162461bcd60e51b81526004016108039061217d565b60008311610d395760405162461bcd60e51b815260206004820152601960248201527f4e4654503a205a65726f204e46547320526571756573746564000000000000006044820152606401610803565b610d4283610ea1565b905083811115610d855760405162461bcd60e51b815260206004820152600e60248201526d4e4654503a20536c69707061676560901b6044820152606401610803565b610dba6001600160a01b037f0000000000000000000000000000000000000000000000000000000000000000163330846117db565b604051637921219560e11b81526001600160a01b037f0000000000000000000000000000000000000000000000000000000000000000169063f242432a90610e2c90309033907f0000000000000000000000000000000000000000000000000000000000000000908990600401612112565b600060405180830381600087803b158015610e4657600080fd5b505af1158015610e5a573d6000803e3d6000fd5b505060408051848152602081018790523393507f1e7da83aa6c758d7cc1871d4ace2d87df2c244331e9fb96802c2e190e8b8fb029250015b60405180910390a29392505050565b6000806000610eae6105ff565b91509150610bbe848284611247565b600042821015610edf5760405162461bcd60e51b81526004016108039061217d565b610ee884610ba2565b905082811015610f2b5760405162461bcd60e51b815260206004820152600e60248201526d4e4654503a20536c69707061676560901b6044820152606401610803565b604051637921219560e11b81526001600160a01b037f0000000000000000000000000000000000000000000000000000000000000000169063f242432a90610f9d90339030907f0000000000000000000000000000000000000000000000000000000000000000908a90600401612112565b600060405180830381600087803b158015610fb757600080fd5b505af1158015610fcb573d6000803e3d6000fd5b506110059250506001600160a01b037f00000000000000000000000000000000000000000000000000000000000000001690503383611971565b604080518581526020810183905233917f526084042e0f69d422c5508801767c6e300b3af582eda7fe68d813bfd46e24da9101610e92565b4284101561105d5760405162461bcd60e51b81526004016108039061217d565b6001600160a01b038716600090815260056020526040812080547f0000000000000000000000000000000000000000000000000000000000000000917f6e71edae12b1b97f4d1f60370fef10105fa2faae0126114a169c64845d6126c9918b918b918b91876110cb8361229e565b909155506040805160208101969096526001600160a01b0394851690860152929091166060840152608083015260a082015260c0810187905260e0016040516020818303038152906040528051906020012060405160200161114492919061190160f01b81526002810192909252602282015260420190565b60408051601f198184030181528282528051602091820120600080855291840180845281905260ff88169284019290925260608301869052608083018590529092509060019060a0016020604051602081039080840390855afa1580156111af573d6000803e3d6000fd5b5050604051601f1901519150506001600160a01b038116158015906111e55750886001600160a01b0316816001600160a01b0316145b6112315760405162461bcd60e51b815260206004820152601760248201527f4e4654503a20494e56414c49445f5349474e41545552450000000000000000006044820152606401610803565b61123c8989896114de565b505050505050505050565b6000806112548585612201565b611260906103e8612201565b905060006103e56112718786612220565b61127b9190612201565b9050611287828261184c565b509695505050505050565b600080428310156112b55760405162461bcd60e51b81526004016108039061217d565b6000806112c06105ff565b915091506112cd60025490565b6112d7838a612201565b6112e191906121ed565b93506112ec60025490565b6112f6828a612201565b61130091906121ed565b92508684101561135c5760405162461bcd60e51b815260206004820152602160248201527f4e4654503a20496e73756666696369656e74204552433131353520416d6f756e6044820152601d60fa1b6064820152608401610803565b858310156113ac5760405162461bcd60e51b815260206004820152601f60248201527f4e4654503a20496e73756666696369656e7420455243323020416d6f756e74006044820152606401610803565b6113b633896119a6565b604080518581526020810185905290810189905233907f743033787f4738ff4d6a7225ce2bd0977ee5f86b91a902a58f5e4d0b297b46449060600160405180910390a2604051637921219560e11b81526001600160a01b037f0000000000000000000000000000000000000000000000000000000000000000169063f242432a9061146b90309033907f0000000000000000000000000000000000000000000000000000000000000000908a90600401612112565b600060405180830381600087803b15801561148557600080fd5b505af1158015611499573d6000803e3d6000fd5b506114d39250506001600160a01b037f00000000000000000000000000000000000000000000000000000000000000001690503385611971565b505094509492505050565b6001600160a01b0383166115405760405162461bcd60e51b8152602060048201526024808201527f45524332303a20617070726f76652066726f6d20746865207a65726f206164646044820152637265737360e01b6064820152608401610803565b6001600160a01b0382166115a15760405162461bcd60e51b815260206004820152602260248201527f45524332303a20617070726f766520746f20746865207a65726f206164647265604482015261737360f01b6064820152608401610803565b6001600160a01b0383811660008181526001602090815260408083209487168084529482529182902085905590518481527f8c5be1e5ebec7d5bd14f71427d1e84f3dd0314c0f7b2291e5b200ac8c7c3b92591015b60405180910390a3505050565b6001600160a01b0383166116675760405162461bcd60e51b815260206004820152602560248201527f45524332303a207472616e736665722066726f6d20746865207a65726f206164604482015264647265737360d81b6064820152608401610803565b6001600160a01b0382166116c95760405162461bcd60e51b815260206004820152602360248201527f45524332303a207472616e7366657220746f20746865207a65726f206164647260448201526265737360e81b6064820152608401610803565b6001600160a01b038316600090815260208190526040902054818110156117415760405162461bcd60e51b815260206004820152602660248201527f45524332303a207472616e7366657220616d6f756e7420657863656564732062604482015265616c616e636560d01b6064820152608401610803565b61174b8282612220565b6001600160a01b0380861660009081526020819052604080822093909355908516815290812080548492906117819084906121d5565b92505081905550826001600160a01b0316846001600160a01b03167fddf252ad1be2c89b69c2b068fc378daa952ba7f163c4a11628f55a4df523b3ef846040516117cd91815260200190565b60405180910390a350505050565b6040516001600160a01b03808516602483015283166044820152606481018290526118469085906323b872dd60e01b906084015b60408051601f198184030181529190526020810180516001600160e01b03166001600160e01b031990931692909217909152611af5565b50505050565b60008061185983856122b9565b1561187a5761186883856121ed565b6118739060016121d5565b6001611887565b61188483856121ed565b60005b915091509250929050565b6001600160a01b0382166118e85760405162461bcd60e51b815260206004820152601f60248201527f45524332303a206d696e7420746f20746865207a65726f2061646472657373006044820152606401610803565b80600260008282546118fa91906121d5565b90915550506001600160a01b038216600090815260208190526040812080548392906119279084906121d5565b90915550506040518181526001600160a01b038316906000907fddf252ad1be2c89b69c2b068fc378daa952ba7f163c4a11628f55a4df523b3ef9060200160405180910390a35050565b6040516001600160a01b0383166024820152604481018290526119a190849063a9059cbb60e01b9060640161180f565b505050565b6001600160a01b038216611a065760405162461bcd60e51b815260206004820152602160248201527f45524332303a206275726e2066726f6d20746865207a65726f206164647265736044820152607360f81b6064820152608401610803565b6001600160a01b03821660009081526020819052604090205481811015611a7a5760405162461bcd60e51b815260206004820152602260248201527f45524332303a206275726e20616d6f756e7420657863656564732062616c616e604482015261636560f01b6064820152608401610803565b611a848282612220565b6001600160a01b03841660009081526020819052604081209190915560028054849290611ab2908490612220565b90915550506040518281526000906001600160a01b038516907fddf252ad1be2c89b69c2b068fc378daa952ba7f163c4a11628f55a4df523b3ef906020016115f6565b6000611b4a826040518060400160405280602081526020017f5361666545524332303a206c6f772d6c6576656c2063616c6c206661696c6564815250856001600160a01b0316611bc79092919063ffffffff16565b8051909150156119a15780806020019051810190611b68919061201a565b6119a15760405162461bcd60e51b815260206004820152602a60248201527f5361666545524332303a204552433230206f7065726174696f6e20646964206e6044820152691bdd081cdd58d8d9595960b21b6064820152608401610803565b6060610bbe848460008585843b611c205760405162461bcd60e51b815260206004820152601d60248201527f416464726573733a2063616c6c20746f206e6f6e2d636f6e74726163740000006044820152606401610803565b600080866001600160a01b03168587604051611c3c91906120f6565b60006040518083038185875af1925050503d8060008114611c79576040519150601f19603f3d011682016040523d82523d6000602084013e611c7e565b606091505b5091509150611c8e828286611c99565b979650505050505050565b60608315611ca8575081610826565b825115611cb85782518084602001fd5b8160405162461bcd60e51b8152600401610803919061214a565b80356001600160a01b0381168114611ce957600080fd5b919050565b600082601f830112611cff57600080fd5b8135602067ffffffffffffffff821115611d1b57611d1b6122f9565b8160051b611d2a8282016121a4565b838152828101908684018388018501891015611d4557600080fd5b600093505b85841015611d68578035835260019390930192918401918401611d4a565b50979650505050505050565b600082601f830112611d8557600080fd5b813567ffffffffffffffff811115611d9f57611d9f6122f9565b611db2601f8201601f19166020016121a4565b818152846020838601011115611dc757600080fd5b816020850160208301376000918101602001919091529392505050565b600060208284031215611df657600080fd5b61082682611cd2565b60008060408385031215611e1257600080fd5b611e1b83611cd2565b9150611e2960208401611cd2565b90509250929050565b600080600080600060a08688031215611e4a57600080fd5b611e5386611cd2565b9450611e6160208701611cd2565b9350604086013567ffffffffffffffff80821115611e7e57600080fd5b611e8a89838a01611cee565b94506060880135915080821115611ea057600080fd5b611eac89838a01611cee565b93506080880135915080821115611ec257600080fd5b50611ecf88828901611d74565b9150509295509295909350565b600080600060608486031215611ef157600080fd5b611efa84611cd2565b9250611f0860208501611cd2565b9150604084013590509250925092565b600080600080600060a08688031215611f3057600080fd5b611f3986611cd2565b9450611f4760208701611cd2565b93506040860135925060608601359150608086013567ffffffffffffffff811115611f7157600080fd5b611ecf88828901611d74565b600080600080600080600060e0888a031215611f9857600080fd5b611fa188611cd2565b9650611faf60208901611cd2565b95506040880135945060608801359350608088013560ff81168114611fd357600080fd5b9699959850939692959460a0840135945060c09093013592915050565b6000806040838503121561200357600080fd5b61200c83611cd2565b946020939093013593505050565b60006020828403121561202c57600080fd5b8151801515811461082657600080fd5b60006020828403121561204e57600080fd5b81356001600160e01b03198116811461082657600080fd5b60006020828403121561207857600080fd5b5035919050565b60006020828403121561209157600080fd5b5051919050565b6000806000606084860312156120ad57600080fd5b505081359360208301359350604090920135919050565b600080600080608085870312156120da57600080fd5b5050823594602084013594506040840135936060013592509050565b60008251612108818460208701612237565b9190910192915050565b6001600160a01b0394851681529290931660208301526040820152606081019190915260a06080820181905260009082015260c00190565b6020815260008251806020840152612169816040850160208701612237565b601f01601f19169190910160400192915050565b6020808252600d908201526c139195140e8811561412549151609a1b604082015260600190565b604051601f8201601f1916810167ffffffffffffffff811182821017156121cd576121cd6122f9565b604052919050565b600082198211156121e8576121e86122cd565b500190565b6000826121fc576121fc6122e3565b500490565b600081600019048311821515161561221b5761221b6122cd565b500290565b600082821015612232576122326122cd565b500390565b60005b8381101561225257818101518382015260200161223a565b838111156118465750506000910152565b600181811c9082168061227757607f821691505b6020821081141561229857634e487b7160e01b600052602260045260246000fd5b50919050565b60006000198214156122b2576122b26122cd565b5060010190565b6000826122c8576122c86122e3565b500690565b634e487b7160e01b600052601160045260246000fd5b634e487b7160e01b600052601260045260246000fd5b634e487b7160e01b600052604160045260246000fdfea264697066735822122038adc1160dd157a0830275f8920a0d78f04d3e7566aa9ceb8fe8588bb58aa80964736f6c63430008060033",
  "devdoc": {
    "kind": "dev",
    "methods": {
      "allowance(address,address)": {
        "details": "See {IERC20-allowance}."
      },
      "approve(address,uint256)": {
        "details": "See {IERC20-approve}. Requirements: - `spender` cannot be the zero address."
      },
      "balanceOf(address)": {
        "details": "See {IERC20-balanceOf}."
      },
      "decimals()": {
        "details": "Returns the number of decimals used to get its user representation. For example, if `decimals` equals `2`, a balance of `505` tokens should be displayed to a user as `5,05` (`505 / 10 ** 2`). Tokens usually opt for a value of 18, imitating the relationship between Ether and Wei. This is the value {ERC20} uses, unless this function is overridden; NOTE: This information is only used for _display_ purposes: it in no way affects any of the arithmetic of the contract, including {IERC20-balanceOf} and {IERC20-transfer}."
      },
      "decreaseAllowance(address,uint256)": {
        "details": "Atomically decreases the allowance granted to `spender` by the caller. This is an alternative to {approve} that can be used as a mitigation for problems described in {IERC20-approve}. Emits an {Approval} event indicating the updated allowance. Requirements: - `spender` cannot be the zero address. - `spender` must have allowance for the caller of at least `subtractedValue`."
      },
      "increaseAllowance(address,uint256)": {
        "details": "Atomically increases the allowance granted to `spender` by the caller. This is an alternative to {approve} that can be used as a mitigation for problems described in {IERC20-approve}. Emits an {Approval} event indicating the updated allowance. Requirements: - `spender` cannot be the zero address."
      },
      "name()": {
        "details": "Returns the name of the token."
      },
      "supportsInterface(bytes4)": {
        "details": "See {IERC165-supportsInterface}."
      },
      "symbol()": {
        "details": "Returns the symbol of the token, usually a shorter version of the name."
      },
      "totalSupply()": {
        "details": "See {IERC20-totalSupply}."
      },
      "transfer(address,uint256)": {
        "details": "See {IERC20-transfer}. Requirements: - `recipient` cannot be the zero address. - the caller must have a balance of at least `amount`."
      },
      "transferFrom(address,address,uint256)": {
        "details": "See {IERC20-transferFrom}. Emits an {Approval} event indicating the updated allowance. This is not required by the EIP. See the note at the beginning of {ERC20}. Requirements: - `sender` and `recipient` cannot be the zero address. - `sender` must have a balance of at least `amount`. - the caller must have allowance for ``sender``'s tokens of at least `amount`."
      }
    },
    "version": 1
  },
  "userdoc": {
    "kind": "user",
    "methods": {
      "calculateInputAmount_InputFee(uint256,uint256,uint256)": {
        "notice": "fee deducted in InputToken"
      },
      "calculateOutputAmount_OutputFee(uint256,uint256,uint256)": {
        "notice": "fee deducted in OutputToken"
      },
      "getPriceERC1155toERC20(uint256)": {
        "notice": "fee deducted in ERC20"
      },
      "getPriceERC20toERC1155Exact(uint256)": {
        "notice": "fee deducted in ERC20"
      }
    },
    "version": 1
  },
  "storageLayout": {
    "storage": [
      {
        "astId": 1311,
        "contract": "contracts/NFTPool.sol:NFTPool",
        "label": "_balances",
        "offset": 0,
        "slot": "0",
        "type": "t_mapping(t_address,t_uint256)"
      },
      {
        "astId": 1317,
        "contract": "contracts/NFTPool.sol:NFTPool",
        "label": "_allowances",
        "offset": 0,
        "slot": "1",
        "type": "t_mapping(t_address,t_mapping(t_address,t_uint256))"
      },
      {
        "astId": 1319,
        "contract": "contracts/NFTPool.sol:NFTPool",
        "label": "_totalSupply",
        "offset": 0,
        "slot": "2",
        "type": "t_uint256"
      },
      {
        "astId": 1321,
        "contract": "contracts/NFTPool.sol:NFTPool",
        "label": "_name",
        "offset": 0,
        "slot": "3",
        "type": "t_string_storage"
      },
      {
        "astId": 1323,
        "contract": "contracts/NFTPool.sol:NFTPool",
        "label": "_symbol",
        "offset": 0,
        "slot": "4",
        "type": "t_string_storage"
      },
      {
        "astId": 2841,
        "contract": "contracts/NFTPool.sol:NFTPool",
        "label": "nonces",
        "offset": 0,
        "slot": "5",
        "type": "t_mapping(t_address,t_uint256)"
      }
    ],
    "types": {
      "t_address": {
        "encoding": "inplace",
        "label": "address",
        "numberOfBytes": "20"
      },
      "t_mapping(t_address,t_mapping(t_address,t_uint256))": {
        "encoding": "mapping",
        "key": "t_address",
        "label": "mapping(address => mapping(address => uint256))",
        "numberOfBytes": "32",
        "value": "t_mapping(t_address,t_uint256)"
      },
      "t_mapping(t_address,t_uint256)": {
        "encoding": "mapping",
        "key": "t_address",
        "label": "mapping(address => uint256)",
        "numberOfBytes": "32",
        "value": "t_uint256"
      },
      "t_string_storage": {
        "encoding": "bytes",
        "label": "string",
        "numberOfBytes": "32"
      },
      "t_uint256": {
        "encoding": "inplace",
        "label": "uint256",
        "numberOfBytes": "32"
      }
    }
  }
}